:020000040800F2
:10000000980600200101000867210008112000085F
:1000100065210008CD080008B52700080000000091
:10002000000000000000000000000000C9210008DE
:10003000070900080000000069210008CB21000822
:100040001B0100081B0100081B0100081B01000820
:100050001B0100081B0100081B0100081B01000810
:100060001B0100081B0100081B010008D108000843
:100070001B0100081B0100081B0100081B010008F0
:100080001B0100081B0100081B0100081B010008E0
:100090001B0100081B0100081B0100081B010008D0
:1000A0001B0100081B0100081B0100081B010008C0
:1000B0001B0100081B0100081B0100081B010008B0
:1000C0001B0100081B0100081B0100081B010008A0
:1000D0001B010008A92700081B0100081B010008DC
:1000E0001B0100081B0100081B010008DFF80CD0F1
:1000F00000F038FB00480047D52E00089806002085
:100100000648804706480047FEE7FEE7FEE7FEE7B1
:10011000FEE7FEE7FEE7FEE7FEE7FEE74722000810
:10012000ED000008202A04DB203A21FA02F0002129
:10013000704721FA02F3D040C2F1200291400843F7
:1001400019467047D2B201E000F8012B491EFBD2DC
:1001500070470022F6E710B513460A4604461946D2
:10016000FFF7F0FF204610BD80EA010210B502F053
:100170000043400022D04A001FD0010E01EB126163
:10018000C0F35600C2F3560240F4000042F40002ED
:10019000A0FB022000047F39140400D0401C50EA68
:1001A000124001D44000491EC2B20C0604EBD0102C
:1001B000401C4008802A02D003E0002010BD20F03F
:1001C0000100002900DA0020184310BD2DE9FE4F80
:1001D000804681EA0300C00F0C46009021F00041E8
:1001E00023F00045B8EB0200A94105D24046214664
:1001F00090461C460B46024623F00040104347D071
:10020000270DC7F30A00C3F30A510290401A019068
:1002100040286BDAC3F3130040F4801B0098924629
:1002200020B10023D2EB030A63EB0B0B0198594674
:10023000C0F14002504600F0DFF906460D46504638
:100240005946019A00F0E7F910EB080061410024DB
:1002500087EA115284EAE7731A4340D0009A62B3E6
:10026000019A012A4FEA075215DC001B61EB0201DB
:100270004FF0004202EA0752CDE90042001C41F56E
:10028000801132462B4600F01EFA03B0BDE8F08F15
:1002900040462146F9E7001B61EB0201001C41F5D5
:1002A000801300185B412018A2F5001747EB0301EB
:1002B00040EAD570B6196D4111E06D084FEA360677
:1002C00045EAC0754FEA0752001B61EB0201001CB2
:1002D00041F5801149084FEA30000019514132467A
:1002E0002B4603B0BDE8F04F00F0DEB900980122C4
:1002F00040000023D0EB020263EBE073009821463C
:100300004FEAE074B8EB000061EB0401E9E783F029
:1003100000435BE781F0004158E72DE9FE4F81EA99
:10032000030404F0004421F0004100944FF0000B5E
:1003300023F0004350EA01045ED052EA03045BD08C
:10034000C3F30A54C1F30A552C44A4F2F3340194C4
:10035000A0FB0254C1F3130141F48011C3F3130352
:1003600043F4801301FB024400FB034E840A970A06
:1003700044EA815447EA8357A4FB076802958D0A33
:1003800005FB07854FEA932C04FB0C542705029DBF
:100390004FEA065847EA1637B5EB08056EEB070C2F
:1003A000870E920E47EA811742EA8312A7FB0201E9
:1003B000B6EB0B0164EB00042B0D43EA0C335E1823
:1003C00044EB1C50DA465146E7FB0201C5F3130427
:1003D0004FEA0B3343EA14534FEA0432019C43EAD9
:1003E0000603A4F10C040294009CCDE900B400F0D3
:1003F0006AF903B0BDE8F08F00200146F9E72DE966
:10040000F04D81EA030404F0004B21F0004514464E
:100410004FF0000A23F0004150EA050220D054EAD0
:1004200001021DD0C5F30A570246C5F31303C1F3F9
:100430001300C1F30A5640F4801543F48013A7EB70
:100440000608101BD64608F2FD3873EB050002D3F0
:1004500008F1010801E092185B41B8F1000F03DADE
:1004600000200146BDE8F08D00204FF480110646C3
:1004700084460EE0171B73EB050705D3121B63EBD5
:10048000050306434CEA010C49084FEA3000921874
:100490005B4150EA0107EDD152EA030012D082EA33
:1004A000040083EA0501084305D0101BAB4106D2C6
:1004B0000122002306E000224FF0004302E06FF02B
:1004C000010253101AEB06004CEB085110EB0A0026
:1004D00041EB0B01BDE8F04D00F0E6B80EB5C10FE1
:1004E00080EAE0700844CA07002140F233438DE8F7
:1004F0000E000A460B4600F0E6F803B000BD0EB54C
:1005000040F2334102910021CDE900110A460B4629
:1005100000F0D9F803B000BD20F00040C10DC0F3D9
:10052000160040F400007F2901DA00207047962968
:1005300003DCC1F19601C840704796398840704786
:10054000C1F30A5210B5C1F3130140F2FF3341F475
:1005500080119A4201DA002010BD40F233439A42E2
:10056000A2F2334203DC5242FFF7DCFD10BD9040A3
:1005700010BD00F0004230F000400AD0C10D01F57E
:100580006071C0F3160042EA0151C20840071143EE
:10059000704700200146704701F0004330B421F05D
:1005A000004150EA010206D00A0DA2F56072C1F3C3
:1005B0001301002A02DC30BC00207047440F44EADB
:1005C000C104C100E01830BC00EBC25000F035B8E7
:1005D000002801DBC0F10040002901DBC1F100412E
:1005E00081427047002801DBC0F10040002901DB97
:1005F000C1F1004188427047202A04DB203A00FA0A
:1006000002F1002070479140C2F1200320FA03F369
:10061000194390407047202A06DBCB17203A41FA55
:1006200002F043EAE07306E041FA02F3D040C2F17F
:10063000200291400843194670470029A8BF70471F
:10064000401C490008BF20F00100704710B4B0FA08
:1006500080FC00FA0CF050EA010404BF10BC7047A3
:1006600049B1CCF1200421FA04F411FA0CF118BFBD
:10067000012121430843A3EB0C01CB1D4FEA00618C
:100680004FEA102042BF002010BC704700EBC3505F
:1006900010440029A4BF10BC7047401C490008BF8B
:1006A00020F0010010BC704710B5141E73F1000457
:1006B00008DA401C41F1000192185B411A4301D154
:1006C00020F0010010BD2DE9F04D92469B4611B17E
:1006D000B1FA81F202E0B0FA80F220329046FFF7E0
:1006E0008BFF04460F4640EA0A0041EA0B015346DD
:1006F0005A46084313D0114653EA010019D0C8F1F5
:1007000040025046FFF70EFD05460E46504659463C
:100710004246FFF771FF084305D0012004E0204660
:100720003946BDE8F08D0020054346EAE0762C43CB
:1007300037430A986305E40AA0EB08000022FD0A8B
:1007400044EA47540A3002D500200146E9E7010592
:1007500010196941DDE9084500196941BDE8F04D0E
:10076000A2E70000064C074D06E0E06840F00103F8
:1007700094E8070098471034AC42F6D3FFF7BAFC70
:10078000183F0008383F000870B5044600688168CB
:10079000C943C90717D1816821F00101816000F0C8
:1007A0007FFE05460AE000BF00F07AFE401B0228EB
:1007B00004D920688068C043C00706D020688068DC
:1007C000C043C007F0D0002070BDA06A40F0100008
:1007D000A062E06A40F00100E062012070BD10B547
:1007E0000146406A826A12F0500F05D0006A026B1F
:1007F000BDE8104008461047816A41F400718162EB
:1008000001688968C1F3424107290CD1017B51B9C4
:10081000816A21F480718162816AC90403D4816A8A
:1008200041F00101816200F0B3F910BD10B5406ADA
:10083000816A41F040018162C16A41F00401C162F4
:1008400000F0A8F910BD10B5406A00F0A2F910BD83
:10085000F8B500260446009600688168C943C907B8
:100860002DD0816841F00101816016481649006869
:10087000B0FBF1F000E0401E00900028FBD100F03A
:100880000FFE054616E000BF00F00AFE401B0228DE
:1008900010D920688068C043C0070BD0A06A40F020
:1008A0001000A062E06A40F00100E06284F8246079
:1008B0000120F8BD20688068C043C007E4D1002053
:1008C000F8BD00003C00002040420F00FEE70000A1
:1008D000014800F02DBB00003002002030B590F838
:1008E00040500124AC40C56B6C6004686360436891
:1008F000102B036803D099600068C26030BD9A6015
:100900000068C16030BD704772B6FEE7064900203E
:10091000C8610648016941F004010161016941F0C3
:100920004001016170470000780200200020024071
:10093000064A0021D16106490A6942F002020A61B1
:100940004861086940F04000086170477802002063
:1009500000200240044B0022DA61044A136943F08C
:1009600001031361018070477802002000200240DB
:1009700014480022C168CB06134904D5CA6942F065
:100980000202CA611022C3685B0705D5CB6943F038
:100990000103CB6142F00402C369DB0707D0CB69D6
:1009A00043F00403CB61C16921F00101C161A2F5EB
:1009B0008071013901D0C2607047C16921F0010125
:1009C000C1617047002002407802002070B50546E2
:1009D00000F066FD0646114C09E0681C07D025B101
:1009E00000F05EFD801BA84201D9032070BDE068C5
:1009F000C007F2D1E068800601D52020E060E06801
:100A0000C00605D4E069C00702D1E068400703D5FD
:100A1000FFF7AEFF012070BD002070BD0020024036
:100A200010B586B0044600F031FC00200121CDE96C
:100A300000010294CDE9031004A9684600F088FB88
:100A400000F0DAFB06B010BD10B5002305E000BFD2
:100A500030F8134022F813405B1C8B42F8DB10BDCA
:100A60002DE9F04116460D46074600F00FFC002424
:100A700009E000BF36F9142007EB4401D317012029
:100A800000F0C4FB641CAC42F4DBBDE8F04100F0B4
:100A9000B3BB0000F8B50024009490F8242025464C
:100AA000012A12D0012280F824204A681F23072A35
:100AB0000DD20668776B521E02EB820293409F4371
:100AC0000B6893401F43776319E00220F8BD066866
:100AD0000D2A0AD2376BD21F02EB820293409F434A
:100AE0000B6893401F43376309E0F76A0D3A02EB46
:100AF000820293409F430B6893401F43F7620A684A
:100B0000072306680A2A0AD3F7680A3A02EB420268
:100B100093409F438B6893401F43F76008E0376919
:100B200002EB420293409F438B6893401F4337611F
:100B30000A68102A01D0112A20D1124B02689A4269
:100B400017D193681B0219D4936843F40003936090
:100B50000968102912D10C490C4A0968B1FBF2F15D
:100B600001EB8101490000E0491E00910029FBD101
:100B700004E0816A41F020018162012480F8245060
:100B80002046F8BD002401403C00002040420F00F8
:100B900070477047704700002DE9F0414FF00007A3
:100BA00004003D467ED0A06A002628B9E66284F89B
:100BB0002460204600F07EF82046FFF7E5FDA16A9C
:100BC000C90600D420B1A06A40F01000A06269E01C
:100BD000A16A21F4885141F00201A1626268E169D1
:100BE000237B0A4347EA43010A43A1684FF4807715
:100BF000B94209D0012907D05FF0000194F814C070
:100C0000BCF1010F02D00AE03946F7E7F3B1A36A5D
:100C100043F02003A362E36A43F00103E362236825
:100C2000D3F804C02CF4694C4CEA010CC3F804C09E
:100C300021688B68DFF870C003EA0C0313438B60F4
:100C4000A168B9420BD0012909D00CE0DFF85CC0E3
:100C5000A3690CEB43330B4343F40061DFE7218AC4
:100C60000D05A5F580152168CB6A23F470032B438D
:100C7000CB62216889680E4B1940914208D1E66227
:100C8000A16A21F0020141F00101A162BDE8F081F9
:100C9000A06A20F0020040F01000A062E06A40F07C
:100CA0000100E0620120F1E7FDF7E1FF00E0FFFF56
:100CB000FE0E1FFF70B586B0002506460095019513
:100CC0000295039500681A4988422ED1194988690E
:100CD00040F400708861886900F4007004908869AD
:100CE00040F0040088618869694600F004000490BF
:100CF0007F200090032001900F4800F0DBFA104C99
:100D00000E48C4E900058020C4E90250400020617B
:100D1000800060612020C4E90605204600F0B2F999
:100D200008B1FFF7F1FD3462666206B070BD0000E5
:100D30000024014000100240000801400800024069
:100D4000300200202DE9F047894604463B490068FF
:100D50003B4F0E1D9046884201D0B84207D1306803
:100D600010F4702F03D001252846BDE8F08794F8D1
:100D7000240001280CD0012084F824002046FFF72D
:100D800067FD05004FF0000004D084F82400EBE775
:100D90000220EAE7A16A40F60162914341F48071C2
:100DA000A1622168B94218D1326812F4702F14D0B0
:100DB000A16A41F48011A1623168490505D5A16A93
:100DC00021F4005141F48051A162A16AC9040AD5FD
:100DD000E16A21F00601E16206E0A26A22F48012D3
:100DE000A2624968E9E7E06284F82400216A1548B4
:100DF0008862216A1448C862216A1448086321681D
:100E00006FF0020008602068816841F480718160A1
:100E1000216843464A464C31206A00F061F9206857
:100E20008168C1F342410729816803D041F48011F0
:100E3000816099E741F4A001FAE700000024014035
:100E400000280140DF070008470800082D080008B7
:100E500010B590F821100022022905D004218163E9
:100E600080F82020012010BD01680B6823F00E03DC
:100E70000B6001680B6823F001030B6090F84030B1
:100E8000C46B012101FA03F3636080F8211080F83C
:100E90002020104610BD000010B590F8211000244D
:100EA000022903D00421816301243DE001680A681E
:100EB00022F00E020A6001680A6822F001020A604C
:100EC0001A4A0168914201D1012121E0174A1432E6
:100ED000914201D110211BE0144A2832914201D1E4
:100EE000891515E0114A3C32914201D189140FE075
:100EF0000E4A5032914202D14FF4803108E00B4A41
:100F00006432914202D14FF4801101E04FF08071C0
:100F1000064A083A5160012180F82110002180F82A
:100F20002010416B01B18847204610BD08000240E7
:100F30002DE9F05FC16B0C6801680B68D0F840C008
:100F4000042202FA0CF2494DDFF824A1494E4A4F1F
:100F5000DFF828B1DFF828E122422CD05A072AD541
:100F60000A68920603D40A6822F004020A60016843
:100F7000A94201D1042219E0514501D1402215E0D6
:100F8000B14202D14FF4806210E0B94202D14FF475
:100F900080420BE0594502D14FF4802206E07145B2
:100FA00002D14FF4800201E04FF080622F490839EE
:100FB0004A60C16A3BE04FF0020808FA0CF818EAF0
:100FC000040F4FF000094FF0010235D05FEA83783B
:100FD00032D50B689B0605D40B6823F00A030B601F
:100FE00080F821200168A94201D1022219E051456F
:100FF00001D1202215E0B14202D14FF4007210E07D
:10100000B94202D14FF400520BE0594502D14FF4DE
:10101000003206E0714502D14FF4001201E04FF0BA
:101020000072124908394A6080F82090816A0029CC
:101030001AD0BDE8F05F0847082505FA0CF52542EF
:1010400012D01B0710D50B6823F00E030B6090F82D
:101050004010C36B02FA01F15960826380F82120CD
:1010600080F82090016BE2E7BDE8F09F08000240A5
:101070001C00024030000240440002405800024080
:101080006C00024030B528B308C813491422194433
:10109000B1FBF2F18900C1631049816302214177FC
:1010A0001A6843F6F0718A43D0E900142143D0E96D
:1010B00002452C4321430469214344692143846947
:1010C00021431143196000214163012242770177D6
:1010D000084630BD012030BDF8FFFDBF00000240D2
:1010E00070B5044690F82000002501280CD001209E
:1010F00084F8200094F821600020012E06D084F8A6
:1011000020000225284670BD022070BD022684F80A
:101110002160A0632068066826F00106066020466C
:10112000FFF7DCFBE06A00282068016802D041F08C
:101130000E0106E021F0040101602068016841F021
:101140000A0101602068016841F001010160D9E7EE
:101150002DE9F047054626480F460126017E012964
:101160000FD00121814601762868DFF888804CF293
:101170005034022808D0A2462046FFF727FCA8B129
:1011800031E00220BDE8F0872046FFF71FFC08BBD6
:101190000120FFF7BBFB2046FFF718FCD8F8101022
:1011A000064621F00401C8F810101CE04FF0FF3093
:1011B0003860AC6811E02046FFF7BAFB5046FFF7F5
:1011C00005FCD8F81010060021F00201C8F8101034
:1011D00001D03C6007E004F58064D5E9020100EB32
:1011E0008120A042E7D8002189F818103046C9E7CD
:1011F00078020020002002400348016941F080018C
:101200000161002070470000002002402DE9F05FDE
:1012100007461C4888460024017E15461E460129C3
:1012200009D00121814601764CF2503A5046FFF731
:10123000CDFB18B122E00220BDE8F09F012F02D0C3
:10124000022F00D00427D346DFF83CA02201284615
:101250003146FEF767FF81B208EB4400FFF77AFBE7
:101260005846FFF7B3FBDAF8102022F00102CAF863
:10127000102018B9641CE4B2BC42E7D3002289F8FC
:101280001820D9E7780200200020024006490020FB
:101290000A69120607D5054A4A60054A4A60096983
:1012A000090600D501207047002002402301674550
:1012B000AB89EFCD2DE9F84FDFF8B891002409F1A3
:1012C000040A0AF1040B23460F270BF1040EC9E0B0
:1012D0000125A5402A40AA427DD1674ED1F804C01D
:1012E000ACEB0608B44532D014DCBCF1030F3AD0A5
:1012F00009DCBCF1000F2AD0BCF1010F1CD0BCF1FD
:10130000020F31D11DE0BCF1110F17D0BCF1120F4B
:101310002AD119E0B8F5881F19D006DCB8F5803F4E
:1013200015D0B8F5801F1FD111E0B8F5001F0ED001
:10133000B8F5041F18D10AE0CB6815E0CB681B1D77
:1013400012E0CB6808330FE0CB680C330CE08B68FD
:101350002BB1012B4FF0080303D0456104E00423B7
:1013600002E0056100E00023FF2A01D8064601E003
:1013700000F104064FEA840501D9A5F12005D6F84D
:10138000008007FA05FC28EA0C0803FA05F548EA8C
:101390000508C6F800804D68ED0062D5374DAE698E
:1013A00046F00106AE61AD6924F0030605F00105C3
:1013B0000095334D06EB050CDCF80850A607360FF8
:1013C00007FA06F825EA0805DFF8B880404503D19A
:1013D0004FF0000817E044E0DFF8AC80404502D150
:1013E0004FF001080FE0DFF8A480404502D14FF034
:1013F000020808E0DFF89880404502D14FF003086A
:1014000001E04FF0040808FA06F848EA0508CCF8AD
:1014100008804D68D9F80060ED034D4601D51643AC
:1014200000E096432E604D68DAF80060AD03554643
:1014300001D5164300E096432E604D68DBF800604E
:10144000ED025D4601D5164300E096432E604D68DF
:10145000DEF80060AD02754601D5164300E0964304
:101460002E60641C0D682A46E5407FF431AFBDE86C
:10147000F88F00000004014000001110001002402D
:101480000000014000080140000C01400010014034
:10149000001401400AB1016170470904FBE7000034
:1014A00001488068704700003000002002488168D1
:1014B000027811448160704730000020074810B561
:1014C000016841F010010160032000F075F801206F
:1014D00000F006F800F024F8002010BD00200240C3
:1014E00070B50D4D04464FF47A712878B1FBF0F0D9
:1014F0000A490968B1FBF0F000F062FB48B9102C12
:1015000007D200222146501E00F036F800206C6001
:1015100070BD012070BD0000300000203C000020A4
:101520000C4808B5816941F001018161816901F0D0
:1015300001010091C16941F08051C161C06900F0B1
:10154000805000900448416821F0E06141F0007152
:10155000416008BD0010024000000140002809DB86
:1015600000F01F02012191404009800000F1E020BD
:10157000C0F8001170470000F0B40E4B1B680C4619
:10158000C3F30223C3F10705042D00D90425191D57
:10159000072901D2002300E0DB1E012606FA05F12F
:1015A000491E214099409E40761E16403143F0BCB2
:1015B00001F001B90CED00E0064900F007020868EF
:1015C0004FF6FF03184040EA0220034A1043086028
:1015D000704700000CED00E00000FA052DE9F8432B
:1015E00005460078354CC00754D0E0690026C0009D
:1015F00008D4E06940F08050E061E069012600F025
:10160000805000902E480168C90512D401688046B8
:1016100041F480710160FFF743FF074605E000BF1A
:10162000FFF73EFFC01B642823D8D8F80000C00590
:10163000F6D5206A10F4407021D0A98801F44071D9
:1016400081421CD0206A1F49012220F440700A60A8
:1016500000220A602062C00711D0FFF721FF074671
:1016600041F2883808E000BFFFF71AFFC11B41456F
:1016700002D90320BDE8F883206A8007F4D5206AE8
:10168000696820F44070084320621EB1E06920F0D0
:101690008050E0612878800705D56068A96820F44B
:1016A0004040084360602878C00605D56068E96856
:1016B00020F48000084360600020DBE70010024057
:1016C00000700040400442422DE9F0470F460500FB
:1016D00061D0434E306800F00700B84209D230684C
:1016E00020F0070038433060306800F00700B8424F
:1016F00051D128683B4C810712D5400703D560685B
:1017000040F4E06060602878000703D5606840F42A
:10171000605060606068A96820F0F0000843606075
:101720002878C00728D06868012810D021680228CE
:1017300010D0890700292EDA616821F003010143E6
:101740006160FFF7ADFE804641F288390DE0216807
:101750008903EFE78901EDE7FFF7A2FEA0EB08019F
:10176000494502D90320BDE8F0876068696800F048
:101770000C00B0EB810FEFD1306800F00700B842E9
:101780000BD9306820F0070038433060306800F033
:101790000700B84201D00120E5E72878400705D5C9
:1017A0006068E96820F4E06008436060287800071A
:1017B00006D56068296920F4605040EAC100606085
:1017C00000F038F86168084AC1F30311515CC84061
:1017D0000649086006480068FFF782FE0020C2E75D
:1017E0000020024000100240003F00083C000020A2
:1017F000340000200448054900684968044AC1F3E0
:101800000221515CC84070473C000020001002409B
:10181000103F00080448054900684968044AC1F3BC
:10182000C221515CC84070473C00002000100240BB
:10183000103F000812A185B00FC98DE80F0014A059
:10184000144A006804905168134801F00C03042BFB
:1018500010D0082B0ED1C1F38343C9031DF8030038
:101860000AD5516804AAC1F34041515C0A4A504369
:10187000B0FBF1F005B0704708494843FAE70000B3
:1018800002030405060708090A0B0C0D0E0F1010C1
:10189000010200000010024000127A0000093D0021
:1018A0002DE9F84F040070D02078C04DC00749D012
:1018B0006868C0F38100012807D06868C0F3810020
:1018C000022809D16868C00306D52868800339D585
:1018D00060680028E7D035E06068B0F5803F0BD045
:1018E00010B1B0F5A02F11D0286820F48030286006
:1018F000286820F4802002E0286840F480302860C6
:10190000606890B1FFF7CCFD06460AE0286840F415
:1019100080202860F0E700BFFFF7C2FD801B64282D
:1019200073D828688003F7D50CE0FFF7B9FD0646A9
:1019300005E000BFFFF7B4FD801B6428F0D82868DD
:101940008003F7D420789A4E80074FF001094FF0BA
:10195000000839D5686810F00C0F07D06868C0F32C
:101960008100022809D16868C00306D4286880076E
:1019700014D52069012808D110E02069B0B1C6F85B
:101980000090FFF78DFD074605E00AE1FFF788FDAF
:10199000C01B0228C4D828688007F7D52868616969
:1019A00020F0F80040EAC10028600DE0C6F8008091
:1019B000FFF776FD074604E0FFF772FDC01B022823
:1019C00023D828688007F7D4207800072CD57948D9
:1019D000A169D9B1C0F80090FFF762FD074604E0A5
:1019E000FFF75EFDC01B02280FD8686A8007F7D595
:1019F00071484FF4FA510068B0FBF1F0009000BF5D
:101A00000098411E0091FAD20EE080E0C0F80080FC
:101A1000FFF746FD074604E0FFF742FDC01B022822
:101A200075D8686A8007F7D42078400760D5E869E0
:101A30000027C00008D4E86940F08050E861E869F8
:101A4000012700F0805000905C480168C90513D45C
:101A50000168834641F480710160FFF721FD8246F1
:101A600006E000BFFFF71CFDA0EB0A0064284ED87B
:101A7000DBF80000C005F5D5E06801280AD008B100
:101A8000052813D0286A20F001002862286A20F077
:101A9000040002E0286A40F001002862E06841F298
:101AA000883B98B1FFF7FCFC82460BE0286A40F0C7
:101AB00004002862EEE700BFFFF7F2FCA0EB0A018A
:101AC00059455AD8286A8007F6D50CE0FFF7E8FC9C
:101AD000824605E0FFF7E4FCA0EB0A0159454CD82B
:101AE000286A8007F6D41FB1E86920F08050E861C9
:101AF000E06988B36968C1F38101022944D00228F2
:101B0000C6F8608004D0FFF7CBFC044638E034E030
:101B1000FFF7C6FC074604E0FFF7C2FCC01B022823
:101B20002BD828688001F7D4206AB0F5803F05D112
:101B30006868A16820F4003008436860D4E90801AF
:101B40000843696821F4741108436860C6F860901E
:101B5000FFF7A6FC044606E025E000BFFFF7A0FC67
:101B6000001B022809D828688001F7D51BE000BFB8
:101B7000FFF796FC001B022802D90320BDE8F88F6E
:101B800028688001F4D40EE00128F7D06868226A42
:101B900000F48031914204D1616A00F470108842EF
:101BA00001D00120EAE70020E8E700000010024031
:101BB00000004242800442423C000020007000408D
:101BC00010B5401EB0F1807F01D3012010BD4FF051
:101BD000E02460610F21601700F0EDFD0020A0619E
:101BE00007202061002010BD70477047F8B50268DB
:101BF00004461068D168536910F00F0F4FF00005CC
:101C000053D003F0010601F4907737435FD0C20749
:101C100005D0CA0503D5226C42F0010222644207B6
:101C200005D5DA0703D0226C42F002022264820753
:101C300005D5DA0703D0226C42F0040222640207C1
:101C400007D501F02002324303D0226C42F0080293
:101C50002264226C002A34D0800604D5880602D57E
:101C6000204600F09CFC20684069216CC0F3801085
:101C7000090700D430B3204600F079FC20684169A0
:101C800049061BD5416921F040014161A06BA8B113
:101C900058494163A06BFFF7FFF8002811D0A06BF3
:101CA000416B01B0BDE8F040084783060FD58B06B5
:101CB0000DD52046BDE8F84000F071BC2046FFF786
:101CC00094FFF8BD2046FFF790FF2564F8BD266B12
:101CD0002023012E52D1C60650D5CE064ED510680F
:101CE00050680090506940062AD5A16B086840688A
:101CF0000004000CEAD0A68D8642E7D9E085886909
:101D0000202818D0D06820F48070D0602068416905
:101D100021F0010141612068416921F040014161E8
:101D200084F83E3025632068C16821F01001C1604D
:101D3000A06BFFF78DF8A08DE18D401A81B219E0FC
:101D4000A08DE18D401A81B2E08D0028BED000291F
:101D5000BCD0D06820F49070D0602068426922F036
:101D60000102426184F83E3025632068C26822F097
:101D70001002C2602046FFF737FFF8BD05062BD5DD
:101D80000D0629D594F83D002128F6D1A068B0F5BC
:101D9000805F01D12069B0B1206A411C21622168B5
:101DA00000784860E08C401E0004000CE084E4D120
:101DB0002068C16821F08001C1602068C16841F0DD
:101DC0004001C160F8BD206A0088C0F3080050607F
:101DD000206A801C2062E5E74006F3D54806F1D56D
:101DE000D168204621F04001D16084F83D3000F0F8
:101DF0000EF9F8BD5F25000870B5040004D094F812
:101E00003D00002510B106E0012070BD84F83C5073
:101E1000204600F023F8242084F83D002068C168A3
:101E200021F40051C160204600F014FC20680169D3
:101E300021F4904101612068416921F02A0141614A
:101E40002068C16841F40051C1602564202084F8F5
:101E50003D0084F83E00002070BD000030B585B024
:101E60000024009401940294039400681849884265
:101E70002CD11848816941F480418161816901F464
:101E800080410491816941F0040181618069124DB2
:101E900000F0040004904FF40070009002200190C4
:101EA0000320039069462846FFF704FA2815CDE978
:101EB0000004694628460294FFF7FCF90022114607
:101EC0002520FFF759FB2520FFF748FB05B030BD63
:101ED00000380140001002400008014090F83E30F8
:101EE000202B0ED159B152B190F83C30012B08D0C3
:101EF000012380F83C300023036300F007BC01207D
:101F0000704702207047000010B511490068096849
:101F1000884215D108220F490D48FFF7DFFF0D4811
:101F20000D4A017811700B49427801200E39012ABF
:101F30000BD0032A05D0042A05D0052A00D1487009
:101F400010BDC87010BD087110BD887010BD0000B4
:101F5000EC0100200E000020400000202DE9F84395
:101F6000044690F83D001F4616460D4620284CD1E9
:101F7000C5B1BEB194F83C00012846D0012084F8D8
:101F80003C004FF00008C4F84080212084F83D0058
:101F9000FFF786FAA6848146E684A068B0F5805FE4
:101FA00003D004E00120BDE8F883206928B12E4663
:101FB0005FF0000584F83C800EE00026FAE78021FF
:101FC000204600F0BEFBA0B9AEB116F8010B2168A7
:101FD0004860E08C401EE084E08C4B464FF00002ED
:101FE00000970028EBD14FF04001204600F0A9FBFC
:101FF00030B10320D7E735F8020BC0F30800E6E75D
:10200000202084F83D000020CDE70220CBE7704778
:10201000FEE70000FEB500242E48009401942C49F0
:1020200002940160891581600125057304750726F6
:1020300006614FF460214460C161FEF7ADFD08B157
:1020400072B6FEE78DE8700069462248FEF722FD71
:1020500008B172B6FEE70224CDE9005469461D4876
:10206000FEF718FD08B172B6FEE700940324694636
:1020700018480194FEF70EFD08B172B6FEE7009411
:102080000424694613480194FEF704FD08B172B6B2
:10209000FEE70094052469460E480194FEF7FAFC19
:1020A00008B172B6FEE70094062469460948019417
:1020B000FEF7F0FC08B172B6FEE7CDE900466946CE
:1020C0000448FEF7E7FC002801D072B6FEE7FEBD2B
:1020D00000240140BC01002070B586B000241D48DA
:1020E0000094019402940394816941F0200181617C
:1020F000816901F020010491816941F0040181614D
:10210000816901F004010491816941F00801816154
:102110008069114E00F008004FF6E275049000222D
:1021200029463046FFF7B6F94FF4C07000900B48CF
:10213000CDE9010469460A48FFF7BCF80120009583
:10214000CDE901040220039069463046FFF7B2F85A
:1021500006B070BD00100240000C014000001110DC
:1021600000080140FEE7FEE77047000015481549EA
:10217000983930F8042F0A8002894A80028A8A80BE
:1021800030F8182FCA8002890A81028A4A81028B9C
:102190008A81028CCA81028D0A82028E4A82828ED4
:1021A0008A82428ECA82C28E0A83028F4A83428FFB
:1021B0008A83828FCA83C28F0A84B0F8420048841F
:1021C00070470000140100207047FFF76FB930B569
:1021D00093B028216846FDF7BCFF14210AA8FDF73B
:1021E000B8FF002501200F95109511950104129557
:1021F0008DE8230004904FF4E010CDE9081002248C
:1022000007946846FFF74CFB08B172B6FEE70AA9CF
:102210000F2081E831004FF48060CDE90D050221E7
:102220000AA8FFF751FA08B172B6FEE74FF4004072
:1022300011900F940FA8FFF7D1F9002801D072B6C2
:10224000FEE713B030BD70472DE9FF5F0646DDE9BC
:102250000E5BDDE912980078109F1C464FF0020AD1
:10226000012801D048B111E0019801F039FD029830
:1022700001F036FD86F800A00BE0002020702870E9
:10228000019801F02DFD029801F02AFD3078022816
:1022900072D1FFF705F9DBF80010401AB0F57A7F2C
:1022A00008D92078401C207085F800A0FFF7F8F8C6
:1022B000CBF800002078B7F90010884207DD0198BC
:1022C00001F00EFD029801F00BFD03203070B7F90C
:1022D00000004FF00A0B90FBFBF1494201EBC101FA
:1022E00008442178884207DC019801F001FD02983A
:1022F00001F0F6FC85F800A0B7F90000594690FB04
:10230000F1F2A2EB820200EB4203227893420CDC52
:1023100090FBF1F35B4200EB8300904205DD01206E
:10232000287011980268C9F80020B7F9000090FBE6
:10233000FBF1494200EB81002178884204DC85F8FA
:1023400000A0029801F0D4FCB7F9000090FBFBF26A
:10235000A2EB82021318227893420DDC90FBFBF172
:10236000401A904208DB01202870029801F0C0FC5E
:1023700011980168C8F800103078032825D1019819
:1023800001F0AEFC029801F0ABFC15980168D9F899
:102390000000FEF71DF908D816980168D8F800006B
:1023A000FEF720F901D804200EE015980168D9F84D
:1023B0000000FEF717F906D316980168D8F8000058
:1023C000FEF706F901D203202870BDE8FF9F2DE932
:1023D000FF5F0646DDE90E5BDDE912980078109F8D
:1023E0001C464FF0020A012801D048B111E00198C3
:1023F00001F076FC029801F07BFC86F800A00BE06F
:10240000002020702870019801F06AFC029801F009
:1024100067FC3078022877D1FFF742F8DBF800102C
:10242000401AB0F57A7F08D92078401C207085F8D2
:1024300000A0FFF735F8CBF800002078B7F90010BE
:10244000884207DD019801F04BFC029801F048FC3E
:1024500003203070B7F900004FF00A0B90FBFBF13E
:10246000494201EBC10108442178884207DC85F824
:1024700000A0019801F03CFC029801F039FCB7F98A
:10248000000090FBFBF1A1EB810100EB4102217800
:102490008A4212DC90FBFBF2524200EB820088423F
:1024A0000BDD01202870029801F022FC149801F045
:1024B000A7FA11990860C9F80000B7F9000090FB6D
:1024C000FBF1494200EB81002178884204DC85F869
:1024D00000A0029801F004FCB7F9000090FBFBF2A9
:1024E000A2EB82021318227893420DDC90FBFBF1E1
:1024F000401A904208DC01202870029801F0F0FB9D
:1025000011980168C8F800103078032825D1019887
:1025100001F0E6FB029801F0E3FB15980168D9F899
:102520000000FEF755F808D816980168D8F80000A2
:10253000FEF758F801D804200EE015980168D9F884
:102540000000FEF74FF806D316980168D8F800008F
:10255000FEF73EF801D203202870BDE8FF9F10B5BA
:10256000406A0021C185C184FFF73FFB10BD0168AF
:10257000CA6822F49072CA6001684A6922F00102B6
:102580004A61016B012904D10168CA6822F0100276
:10259000CA60202180F83E1000210163704708B511
:1025A00090F83E10222901D0022008BD82684FF425
:1025B00080539A4201D1016921B1816A9A421BD0AC
:1025C0004AB10AE00268816A5268C2F308020A80CE
:1025D000816A891C08E0026972B10268526802F0DF
:1025E0007F020A70816A491C8162C18D491E0904FB
:1025F000090CC18503D019E002685268F1E701684F
:10260000CA6822F02002CA600168CA6822F4807297
:10261000CA6001684A6922F001024A61202180F8FB
:102620003E10016B012903D0FFF76EFC002008BDAE
:10263000002101630168CA6822F01002CA600168C3
:102640000A68D20602D50A6849680091818DFFF7B1
:10265000CBFAEBE770B5044600680169E26821F443
:102660004051114301612169A06808436169084331
:102670002168CA6841F20C639A430243CA60206829
:102680004169A26921F44071114341611E492068EA
:10269000884202D1FFF7BEF801E0FFF7ABF800EB8C
:1026A000C00101EB0012606864218000B2FBF0F30E
:1026B000B3FBF1F36FF018067343B2FBF0F5B2FB16
:1026C000F0F605EB8305322303EB0515B5FBF1F5B9
:1026D000B6FBF1F605F0F00505EB0615B2FBF0F6DA
:1026E000B2FBF0F0B0FBF1F06FF01802504306EBD4
:1026F000800003EB0010B0FBF1F0216800F00F0048
:102700002844886070BD00000038014081628285E5
:10271000C28500210164222280F83E2080F83C100E
:102720000168CA6842F48072CA6001684A6942F06E
:1027300001024A610068C16841F02001C1600020C7
:1027400070472DE9F041984617460E460446069D0F
:102750001DE0681C1BD02DB1FEF7A2FEA0EB080007
:10276000A84214D92068C16821F4D071C1602068E2
:10277000416921F001014161202084F83D0084F885
:102780003E00002084F83C000320BDE8F081206872
:10279000006836EA000004D00020B842D9D00020FA
:1027A000F3E70120F9E700000148FFF71FBA000036
:1027B000EC010020FEE70907090E002804DB00F108
:1027C000E02080F80014704700F00F0000F1E020D6
:1027D00080F8141D704702E008C8121F08C1002AC3
:1027E000FAD170477047002001E001C1121F002A92
:1027F000FBD170472DE9F04FD048CF4E99B000F192
:102800002802B179039200F14804121D179204F1D5
:10281000080212922832119200F130021692143AF4
:10282000109204F110020F9228320E9200F134023D
:102830001592143A0D9204F118020C9228320B9260
:1028400000F1380200F1140B00F118092430149241
:102850000A9004F120000990283006F1170503279B
:1028600004F1280A05F108080890012903D029B1CC
:1028700003290BD091E00220B07192E0002188F88A
:102880000710FF20E87119B0BDE8F08F4FF48040C9
:1028900001F026FA4FF4005001F022FA4FF4805074
:1028A00001F01EFA4FF4006001F01AFA4FF4806054
:1028B00001F016FA022001F013FA4FF4807001F0D3
:1028C0000FFA802001F00CFA402001F009FA2020D4
:1028D00001F006FA4FF4004001F002FA4FF40070E4
:1028E00001F0FEF995495A4648315046039B00F0E5
:1028F00071FA2870DDE911014A46179B00F06AFA67
:1029000068700DF1380C169B9CE8070000F062FA25
:10291000A8700DF12C0C159B9CE8070000F05AFAEA
:10292000E8700DF1200C149B9CE8070000F052FAAF
:10293000DFF804C228710CF10F0C6420BCF80030E1
:10294000BCF804200421934202D3B2FBF3F201E06D
:10295000B3FBF2F26FF018035A43B4F9503000EBB6
:1029600082029A4201DCA97100E0AF71BCF802302A
:10297000BCF80620934202D3B2FBF3F201E0B3FBB2
:10298000F2F26FF018035A4300EB8200B4F94E20C4
:10299000904201DC697100E06F71B07902287FF428
:1029A00072AFFEF77DFD65491C394969401AB0F5E3
:1029B0007A7F09D998F80710491C88F80710FEF7A4
:1029C0006FFD5E491C394861B4F95C0098F8071046
:1029D0000A3081422CDD4FF4804001F081F94FF440
:1029E000005001F07DF94FF4805001F079F94FF477
:1029F000006001F075F94FF4806001F071F9022078
:102A000001F06EF94FF4807001F06AF9802001F056
:102A100067F9402001F064F9202001F061F94FF4DA
:102A2000004001F05DF94FF4007001F059F9B77101
:102A3000424ACDE906A4D432CDE9042B4FF480718B
:102A40003E4B8801039A8DE80F003C4A3A4BA8326E
:102A5000901C1733A2F10E01044600F071F8DDE975
:102A60001112364BCDE90612D833A3F1D400CDE9CB
:102A7000043980239901179ACDE90013CDE902208A
:102A800000F198012246A8306B1C044600F058F86B
:102A90000EAE2A4B96E80700DC33CDE90601A3F120
:102AA000D401CDE9043240239A0116980092039193
:102AB000CDE901309631224601F11000AB1C0446ED
:102AC00000F03EF80BAE1D4B96E80700E033CDE971
:102AD0000601A3F1D401CDE9043220239A0115980F
:102AE00000920391CDE901309431224601F11000AA
:102AF000EB1C044600F0C8F808AE104B96E807003F
:102B0000E43304930791CDE90520A3F1D40214998D
:102B10004FF40040CDE902124311CDE900300749DE
:102B20002B1DA231224601F1100000F0ADF819B0C2
:102B3000BDE8F04F00F082BF07000020CC0000206D
:102B40002DE9F05FDFF83C9105460E46DDE90C8B80
:102B500099F80700B5F900100F9F1C46884264DA07
:102B6000B2F90020904260DDB6F900C04FF00A0AC9
:102B70009CFBFAF2524202EBC2021144814207DC92
:102B8000022020700A9801F0B3F80B9801F0A8F821
:102B9000B6F90020B5F9001092FBFAF0A0EB800026
:102BA00001EB400399F8070083420FDC92FBFAF235
:102BB000524201EB8201814208DD012020700E9813
:102BC00000F01EFFCBF80000C8F80000B6F90010B6
:102BD00091FBFAF0B5F90010404201EB800199F841
:102BE0000700814204DC022020700B9801F080F87D
:102BF000B6F90030B5F9002093FBFAF1A1EB8101A1
:102C00008E1899F807108E420FDA93FBFAF0101A1B
:102C100088420ADB012020700B9801F069F80E98B9
:102C200000F0EEFECBF80000386099F80700B5F927
:102C30000010884223DB0A9801F052F80B9801F04B
:102C40004FF810980168D8F80000FDF7C1FC07D8CC
:102C5000119801683868FDF7C5FC01D804200DE023
:102C600010980168D8F80000FDF7BCFC05D3119856
:102C700001683868FDF7ACFC01D203202070BDE884
:102C8000F09F0000260000202DE9F05FDFF8409162
:102C900005460E46DDE90C8B99F80700B5F90010E2
:102CA0000F9F1C46884267DAB2F90020904263DD2C
:102CB000B6F900C04FF00A0A9CFBFAF2524202EB4E
:102CC000C2021144814207DC022020700A9801F000
:102CD0000FF80B9801F00CF8B6F90020B5F90010C8
:102CE00092FBFAF0A0EB800001EB400399F807009B
:102CF000834212DC92FBFAF2524201EB82018142E2
:102D00000BDD012020700B9800F0F2FF0E9800F010
:102D100077FECBF80000C8F80000B6F9001091FB70
:102D2000FAF0B5F90010404201EB800199F8070074
:102D3000814204DC022020700B9800F0D1FFB6F92C
:102D40000030B5F9002093FBFAF1A1EB81018E1858
:102D500099F807108E420FDA93FBFAF0101A8842A6
:102D60000ADC012020700B9800F0BAFF0E9800F0EA
:102D700047FECBF80000386099F80700B5F900105D
:102D8000884223DB0A9800F0ABFF0B9800F0A8FF05
:102D900010980168D8F80000FDF71AFC07D81198C0
:102DA00001683868FDF71EFC01D804200DE010987A
:102DB0000168D8F80000FDF715FC05D311980168EB
:102DC0003868FDF705FC01D203202070BDE8F09FB4
:102DD000260000202DE9F0410E46074601681C46FA
:102DE00015461868FDF7F4FB06D831682868FDF72A
:102DF000F9FB01D804240AE039682068FDF7F2FBEA
:102E000004D331682868FDF7E3FB00D20324204691
:102E1000BDE8F08170B5094DFF231A4605F58076AF
:102E200006E000BF10F8014B54402A5D5A40335D64
:102E3000491E89B2F6D242EA032070BD003D000867
:102E40002DE9F0411C460D460646B2F9003000213E
:102E50007820782B01DD118002E0002B00DA108051
:102E6000B4F90030782B01DD218002E0002B00DA7C
:102E70002080B2F90000FDF731FB0A4F00223B46EB
:102E8000FDF7BDFAFDF788FB3060B4F90000FDF7EF
:102E900025FB00223B46FDF7B2FAFDF77DFB2860DB
:102EA000BDE8F08100002440B0F90010142901DDD4
:102EB000002102E0002901DA142101807047B0F9F5
:102EC00000105A2901DD0A2102E00A2901DA5A21FB
:102ED00001807047AAB0FEF7F1FAFFF778F9FFF723
:102EE000FBF8FE48416941F001014161406900225F
:102EF00000F00100009011460B20FEF73DFB0B2077
:102F0000FEF72CFBFFF786F8F648F5490024016030
:102F10004FF4E141C0E901140C21C460C0E904414F
:102F20008461C461FEF768FF08B172B6FEE708224B
:102F3000ED49EC48FEF7D2FFEC4A1321EC48FDF7CF
:102F400083FDE94A0120093AE849507000201070D9
:102F500001F198000B8883804B8883818B88838262
:102F6000CB8820F81C3F0B8903814B8903828B8916
:102F70000383CB8903840B8A03854B8A03868B8A60
:102F80008386CB8A43860B8BC3864B8B03878B8BC5
:102F90004387CB8B83870B8CC387498CA0F8421067
:102FA000D248983000F12C01299108311791283925
:102FB00018913031159128391691383113912839EB
:102FC00014912C312891891E2791103100F1700B3A
:102FD00026910BF108012591491C2491491C23914C
:102FE000491C2291113101F108021B92121D10316E
:102FF000CDE9191200F128012191083111912839E8
:10300000109130310F9128390E91383112912839B1
:103010000D9132312091891C1F91891C1E91891CB0
:103020001D91891C1C9142390C9128310B91243936
:103030004430CDE90901AD490722263101F58D70F3
:10304000FDF780FEA94D9835B5F85260B5F85400EB
:10305000B5F85640B5F8581030442144B5F85A2018
:1030600001448B18B5F85E201A44A5F85C20A5F839
:103070006260A5F864002044A5F86600A5F8681011
:10308000A5F86A30A5F17200A5F86C2005F17E0163
:1030900000880880F03901F1F002B1F80290A2F83E
:1030A0000290B1F804A0A2F804A0B1F80680A2F83A
:1030B00006800F89F0310F81F0394E89F0314E8151
:1030C000F0398C89F0318C81FDF719FA4FF06632B6
:1030D000884BFDF722F90022874BFDF790F9FDF7A9
:1030E0005BFA05F18C0108604846FDF708FA4FF0DD
:1030F0006632804BFDF711F900227F4BFDF77FF917
:10310000FDF74AFA05F18C0148605046FDF7F7F9E2
:103110004FF06632774BFDF700F90022764BFDF752
:103120006EF9FDF739FA05F18C0188604046FDF72C
:10313000E6F94FF066326F4BFDF7EFF800226E4B69
:10314000FDF75DF9FDF728FA05F18C01C8603846F6
:10315000FDF7D5F94FF06632664BFDF7DEF8002239
:10316000654BFDF74CF9FDF717FA05F18C01086185
:103170003046FDF7C4F94FF066325E4BFDF7CDF8EF
:1031800000225D4BFDF73BF9FDF706FA05F18C01D6
:1031900048612046FDF7B3F94FF06632554BFDF715
:1031A000BCF80022544BFDF72AF9FDF7F5F905F1BB
:1031B0008C018861084600F023FCA5F148010860F5
:1031C0004E49FCF7D1FFFDF7A7F9A5F10C063080B9
:1031D00005F1900000F014FCA5F148014860474952
:1031E000FCF7C2FFFDF798F970801B9800F008FC0F
:1031F000A5F1480188604149FCF7B6FFFDF78CF95D
:10320000B0801A9800F0FCFBA5F14801C8603B496A
:10321000FCF7AAFFFDF780F9F080199800F0F0FBA9
:10322000A5F1480108613549FCF79EFFFDF774F9E7
:10323000308105F18C00324F40693946FCF794FF2C
:10324000FDF797F9DFF8BC90DFF8BCA04A4653467B
:10325000FDF7D5F8FDF774F9DFF88C80394608F1F1
:1032600008084446A8F8060005F18C008069FCF7C0
:103270007BFFFDF77EF94A465346FDF7C0F8FDF7A0
:103280005FF960809BF800009BF801109BF8032019
:1032900040EA41009BF80210A8F11107890041EAB9
:1032A000C20108439BF804105C4640EA01109BF8F9
:1032B000051040EA4110397840EA81108BF80C0083
:1032C000A079E179627A40EA4100217A890041EAF5
:1032D000C2010843A17A40EA011017E00010024041
:1032E00000380140EC0100200E0000207C0000208E
:1032F00000FC000866660A4000FEAF400000C842BD
:1033000000007A44BA490C022B87F83FE17A2A1D63
:1033100040EA4110797840EA811060732846299B81
:103320002199FFF78DFDDDE91001DDE91732FFF787
:1033300087FDDDE90E01DDE91532FFF781FDDDE9ED
:103340000B10DDE90932FFF77BFDDDE90B10DDE94C
:103350000932FFF775FDDDE91213149A0D98FFF796
:103360006FFD2898FFF7A0FD2798FFF79DFD209897
:10337000FFF7A5FD1F98FFF7A2FD1E98FFF79FFD21
:103380001D98FFF79CFD1C98FFF799FD2698FFF705
:1033900096FD7D1F287801280ED1FEF7E7FEDFF8A5
:1033A00014944846FDF73CFBA6F18C0213214846D5
:1033B000FDF756FB00202870687801286FD1FE4881
:1033C000C07827286CD017DC272857D2DFE800F018
:1033D0003D57565656565656565656565656565AA1
:1033E0006E8094AA63778BA0B3BBC35E72849BAEDE
:1033F000697B8FA4B7BFC800812872D019DC2F2841
:1034000070D009DCA0F128000728DED2DFE800F048
:10341000B5BDC5CDD536B100322871D004DC302819
:103420006FD031282AD1BCE033286BD08028F9D165
:10343000CDE082380D28C8D2DFE800F0F3F1F0EFDC
:10344000EE20D0E0F9ECEBEAE9000120A071E07198
:1034500020726072A072E0727870D7490020C91F94
:10346000087048708870C870087148718871207041
:103470006070A070E0702071607138701DE10120F3
:1034800028701AE1CD488188491C02E0CB48818828
:10349000491E818011E1C948818D491C04E00EE17B
:1034A00063E0C648818D491E818506E1C348818954
:1034B000491C02E0C1488189491E8181FDE0BF4865
:1034C000818E491C02E0BD48818E491E8186F4E050
:1034D000BA48818A491C02E0B848818A491E818223
:1034E000EBE085E04DE0B548818F491C02E0B34830
:1034F000818F491E8187E0E0B048818B491C05E03F
:1035000057E046E05EE0AD48818B491E8183D4E000
:10351000AA4830F8441F21E0A84830F8441F22E0B0
:103520000180CAE0A548818C491C02E0A348818C37
:10353000491E8184C1E0A14830F84C1F0EE09F482D
:1035400030F84C1F0FE09D4830F8501F06E09B48B4
:1035500030F8501F07E0994830F84E1F491CDFE74C
:10356000964830F84E1F491EDAE7944830F8521F4B
:1035700026E0924830F8521F27E0904830F8541F58
:103580001EE08E4830F8541F1FE08C4830F8561F5C
:1035900016E08A4830F8561F17E0884830F8581F60
:1035A0000EE0864830F8581F0FE0844830F85A1F64
:1035B00006E0824830F85A1F07E0804830F85E1F66
:1035C0000A31ADE77D4830F85E1F0A39A8E77B482D
:1035D000A11D703000F008FA012005E07749A01D18
:1035E000703100F001FA00207349C91F087064E0CF
:1035F000E11D601C00F0F8F9012004E0611CE01DF1
:1036000000F0F2F900206C49C91F487055E04BE00A
:103610003AE02AE01AE00AE03FE02FE01FE00FE086
:10362000FFE7A01C259900F0DFF9012004E0A11CB0
:10363000259800F0D9F900205F49C91F88703CE047
:10364000E01C249900F0D0F9012004E0E11C24984A
:1036500000F0CAF900205849C91FC8702DE0201D8C
:10366000239900F0C1F9012004E0211D239800F006
:10367000BBF900205049C91F08711EE0601D229946
:1036800000F0B2F9012004E0611D229800F0ACF9CD
:1036900000204949C91F48710FE04748791C093883
:1036A00000F0A2F9012005E04349781C093900F037
:1036B0009BF900204049C91F887100206870A878D4
:1036C00001281AD13C483D4F0521D43F40787870FD
:1036D0000220B870207BF870607B38713846FFF7A5
:1036E00099FB7871000AB87139460A23072201F55F
:1036F000D670FEF733FC0020A870E87801287DD151
:103700002D4A2E4FD43F50787870D078112836D07B
:1037100003DC38B1072857D117E0132839D01A280D
:1037200052D14DE025483188C038018071884180F0
:10373000B1888180F188C18031890181B8F8003079
:103740004381B8F8021081813EE01C48A0F1C0011D
:1037500083880B8083894B80838A8B80838BCB808B
:10376000838C0B81838D4B81838E8B81838FCB8167
:10377000B0F844300B82B0F84C00488224E00F4887
:10378000A0F1C001B0F850300B80B0F84E00488076
:103790001AE00A480949C03930F8523F0B80438883
:1037A0004B8083888B80C388CB8003890B81808981
:1037B000488109E000FC00080E00002014010020F0
:1037C000864840F2CD7101809088844B44BA6000F5
:1037D000B870002009E000BF33F8101007EB40027A
:1037E0000E0AD670401C117180B2A042F4D303209F
:1037F00000EB440081B27948143800E013E0FFF791
:1038000009FB07EB44011423C870000A0871052066
:10381000724900EB440082B2143901F5D670FEF70C
:103820009DFB0020E8702879012842D16C486B4E3E
:10383000143E41787170808806F1280244BA600015
:10384000B0706748103001781180417851808178DC
:103850009180C178D180017911814179518180793C
:103860009081002009E000BF32F8101006EB400301
:103870000F0ADF70401C197180B2A042F4D30320FC
:1038800000EB440081B255481438FFF7C3FA06EB49
:1038900044010A23C870000A087105204F4900EB53
:1038A000440082B2143901F5D670FEF757FB0020B0
:1038B0002871DDE910124B4BCDE90721A3F1C000BF
:1038C000CDE9050300F114021F98A2F14401CDE9EE
:1038D00001104348D43B11300090CDE90332C51D9F
:1038E0008022A0F118046B1C9101601CFEF7ACFC57
:1038F000DDE90E01394B1B9ACDE90621943303F122
:10390000140205930890A2F128001E99CDE9021037
:10391000303BA81FCDE9000304924022AB1C91016B
:10392000A01CFEF791FC2F48219A9038CDE9072082
:1039300000F18C01A0F13403CDE90531209A029207
:103940002038D439CDE90310303B04F11700CDE91C
:1039500000034FF480722B4691011738FEF774FC78
:10396000DDE90B211A98CDE906021C4B1D9A98330C
:1039700003F11400059308910292A0F12801CDE90A
:103980000310303B681FCDE900032022EB1C91019E
:10399000E01CFEF71CFD0D9A129819990F4BCDE90A
:1039A00007029C33CDE9053103F11402A2F128008E
:1039B0001C99CDE90210303B281FCDE90003049289
:1039C0004FF400422B1D5111201DFEF700FD00F0A9
:1039D00099F8FEF70FFFFFF72EBB00005400002000
:1039E0000E000020A4010020044A1279FF2A03D10E
:1039F0000122027000200870704700000E000020B5
:103A000010B50068FCF7B5FD0022074BFCF785FCFC
:103A1000064A074BFCF77BFC064A074BFCF7EFFC1A
:103A2000BDE81040FCF7B8BD00002840CDCCCCCCA0
:103A3000CCCC0C409A999999999905402DE9F04779
:103A40002E492F4DC879B5F96C20904253DAB5F95B
:103A50006A3098424FDDB5F95E3002265B4203EBD7
:103A6000C3031A448846A1F10804824204DCA6710B
:103A70006671022000F034F9B5F95E100A2791FB57
:103A8000F7F04242B5F96C004FF4007900EBC20345
:103A900098F8072093420CDC91FBF7F1494201EBC7
:103AA00081010844904204DDA6716671484600F029
:103AB0001FF935F95E0F98F8072090FBF7F04042A8
:103AC000B5F90E3000EB8000C118914209DC0120ED
:103AD000A0716071094900201039088088804880F1
:103AE000C8809A4207DB484600F0FAF8BDE8F04784
:103AF000022000F0FDB8BDE8F0870000260000209D
:103B0000140100202DE9F05FDFF8CC8103270225A6
:103B100098F80500714E4FF0000B08F10F0A08F1FC
:103B20001F0908F11704012801D050B116E0022046
:103B300000F0D6F84FF4007000F0DAF888F805507D
:103B40004CE084F805B084F806B089F805B002208E
:103B500000F0C6F84FF4007000F0C2F898F80500C5
:103B6000032837D1022000F0BBF84FF4007000F0BA
:103B7000B7F8BAF80030BAF804C0642104225046FD
:103B8000634502D3BCFBF3F301E0B3FBFCF36FF03E
:103B9000180C03FB0CF3B6F950C001EB830363452B
:103BA00001DCA27100E0A7714388BAF806008342E5
:103BB00002D3B0FBF3F001E0B3FBF0F06FF01803B9
:103BC000584301EB8000B6F94E10884201DC627167
:103BD00000E0677198F8050002287AD1FDF760FCD3
:103BE0003E4964398969401AB0F57A7F0BD999F852
:103BF0000510491C89F80510A5716571FDF750FC89
:103C0000364964398861B6F95E0099F805100A30C2
:103C1000814208DD022000F063F84FF4007000F0EC
:103C20005FF888F80570B6F95E00414201EBC1010A
:103C3000014499F80500814208DCA57165710220F4
:103C400000F04EF84FF4007000F052F8B6F95E0044
:103C50000A2790FBF7F1494299F80520B04600EB9E
:103C6000C1014E46914211DC90FBF7F1494201EB54
:103C700081010844F179884208DDA57165714FF42E
:103C8000007000F035F8022000F02AF8B8F95E2044
:103C9000737992FBF7F0404200EB800010449842A9
:103CA0000ADC0120A0716071AAF800B0AAF804B083
:103CB000AAF802B0AAF806B093420ADBA5716571B2
:103CC0004FF4007000F00CF8BDE8F05F022000F047
:103CD0000FB8BDE8F09F000007000020140100208D
:103CE00081B200220148FDF7D5BB0000000C014065
:103CF00081B201220148FDF7CDBB0000000C01405C
:103D000000C1814001C0804101C0804100C18140AB
:103D100001C0804100C1814000C1814001C080419B
:103D200001C0804100C1814000C1814001C080418B
:103D300000C1814001C0804101C0804100C181407B
:103D400001C0804100C1814000C1814001C080416B
:103D500000C1814001C0804101C0804100C181405B
:103D600000C1814001C0804101C0804100C181404B
:103D700001C0804100C1814000C1814001C080413B
:103D800001C0804100C1814000C1814001C080412B
:103D900000C1814001C0804101C0804100C181401B
:103DA00000C1814001C0804101C0804100C181400B
:103DB00001C0804100C1814000C1814001C08041FB
:103DC00000C1814001C0804101C0804100C18140EB
:103DD00001C0804100C1814000C1814001C08041DB
:103DE00001C0804100C1814000C1814001C08041CB
:103DF00000C1814001C0804101C0804100C18140BB
:103E000000C0C101C30302C2C60607C705C5C4047A
:103E1000CC0C0DCD0FCFCE0E0ACACB0BC90908C8EA
:103E2000D81819D91BDBDA1A1EDEDF1FDD1D1CDCDA
:103E300014D4D515D71716D6D21213D311D1D0104A
:103E4000F03031F133F3F23236F6F737F53534F43A
:103E50003CFCFD3DFF3F3EFEFA3A3BFB39F9F838AA
:103E600028E8E929EB2B2AEAEE2E2FEF2DEDEC2C9A
:103E7000E42425E527E7E62622E2E323E12120E00A
:103E8000A06061A163A3A26266A6A767A56564A4FA
:103E90006CACAD6DAF6F6EAEAA6A6BAB69A9A8686A
:103EA00078B8B979BB7B7ABABE7E7FBF7DBDBC7C5A
:103EB000B47475B577B7B67672B2B373B17170B0CA
:103EC00050909151935352929656579755959454BA
:103ED0009C5C5D9D5F9F9E5E5A9A9B5B995958982A
:103EE000884849894B8B8A4A4E8E8F4F8D4D4C8C1A
:103EF000448485458747468682424383418180408A
:103F00000000000000000000010203040607080989
:103F10000000000001020304383F000800000020F8
:103F200040000000D6270008783F0008400000202D
:103F300058060000E627000800000000000000000E
:103F40000000000000000000000000000000000071
:103F50000000000000000000000000000000000061
:103F60000000000000000000010000001000000040
:083F7000000000000024F40031
:04000005080000ED02
:00000001FF
