:020000040800F2
:1000000000080020890100086F1C0008191B000867
:100010006D1C0008D5030008FD2500080000000045
:10002000000000000000000000000000731C000839
:100030000F04000800000000711C0008751C000877
:10004000A3010008A3010008A3010008A301000800
:10005000A3010008A3010008A3010008A3010008F0
:10006000A3010008A3010008A3010008D9030008A8
:10007000A3010008A3010008A3010008A3010008D0
:10008000A3010008A3010008A3010008A3010008C0
:10009000A3010008A3010008A3010008A3010008B0
:1000A000A3010008A3010008A3010008A3010008A0
:1000B000A3010008A3010008A3010008A301000890
:1000C000A3010008A3010008A3010008A301000880
:1000D000A3010008F1250008A3010008A3010008FE
:1000E000A3010008A3010008A301000800F002F822
:1000F00000F03AF80AA090E8000C82448344AAF188
:100100000107DA4501D100F02FF8AFF2090EBAE885
:100110000F0013F0010F18BFFB1A43F0010318473B
:10012000CC370000EC370000103A24BF78C878C103
:10013000FAD8520724BF30C830C144BF04680C60ED
:10014000704700000023002400250026103A28BF35
:1001500078C1FBD8520728BF30C148BF0B60704739
:100160001FB51FBD10B510BD00F058F81146FFF7C0
:10017000F7FF02F06BFA00F076F803B4FFF7F2FF36
:1001800003BC00F07DF8000009488047094800479B
:10019000FEE7FEE7FEE7FEE7FEE7FEE7FEE7FEE737
:1001A000FEE7FEE704480549054A064B7047000094
:1001B000F11C0008ED0000080002002000080020EB
:1001C00000040020000400204FF0000200B5134698
:1001D00094469646203922BFA0E80C50A0E80C5067
:1001E000B1F12001BFF4F7AF090728BFA0E80C5018
:1001F00048BF0CC05DF804EB890028BF40F8042B11
:1002000008BF704748BF20F8022B11F0804F18BF7D
:1002100000F8012B7047704770477047754600F033
:100220002BF8AE4605006946534620F00700854688
:1002300018B020B5FFF7B6FFBDE820404FF000062C
:100240004FF000074FF000084FF0000B21F00701BE
:10025000AC46ACE8C009ACE8C009ACE8C009ACE801
:10026000C0098D46704710B50446AFF300802046A4
:10027000BDE81040FFF781BF004870479C01002097
:1002800001491820ABBEFEE72600020070470000BF
:1002900070B5044600688168C943C90717D18168F1
:1002A00021F00101816000F025FD05460AE000BF54
:1002B00000F020FD401B022804D920688068C0435C
:1002C000C00706D020688068C043C007F0D0002077
:1002D00070BDA06A40F01000A062E06A40F001002A
:1002E000E062012070BD10B50146406A826A12F0DA
:1002F000500F05D0006A026BBDE810400846104759
:10030000816A41F40071816201688968C1F34241E8
:1003100007290CD1017B51B9816A21F48071816276
:10032000816AC90403D4816A41F00101816200F04D
:100330000BF910BD10B5406A816A41F0400181623D
:10034000C16A41F00401C16200F000F910BD10B5AE
:10035000406A00F0FAF810BDF8B500260446009691
:1003600000688168C943C9072DD0816841F0010147
:100370008160164816490068B0FBF1F000E0401EAD
:1003800000900028FBD100F0B5FC054616E000BF48
:1003900000F0B0FC401B022810D920688068C043E0
:1003A000C0070BD0A06A40F01000A062E06A40F0E5
:1003B0000100E06284F824600120F8BD20688068B4
:1003C000C043C007E4D10020F8BD00008C0000202D
:1003D00040420F00FEE70000014800F085BA00002F
:1003E0005801002030B590F840500124AC40C56B56
:1003F0006C60046863604368102B036803D09960E5
:100400000068C26030BD9A600068C16030BD70474E
:1004100072B6FEE710B5084903F090F803F062F8F1
:10042000064A074B02F074FF064A074B02F0DAFC5B
:1004300002F030FEC0B210BD00004041CDCCCCCCAB
:10044000CCCC0C409A99999999990540F8B500241B
:10045000009490F824202546012A12D0012280F829
:1004600024204A681F23072A0DD20668776B521E84
:1004700002EB820293409F430B6893401F437763D4
:1004800019E00220F8BD06680D2A0AD2376BD21F88
:1004900002EB820293409F430B6893401F433763F4
:1004A00009E0F76A0D3A02EB820293409F430B6822
:1004B00093401F43F7620A68072306680A2A0AD393
:1004C000F7680A3A02EB420293409F438B689340DD
:1004D0001F43F76008E0376902EB420293409F43F5
:1004E0008B6893401F4337610A68102A01D0112A94
:1004F00020D1124B02689A4217D193681B0219D47B
:10050000936843F4000393600968102912D10C49E1
:100510000C4A0968B1FBF2F101EB8101490000E0EE
:10052000491E00910029FBD104E0816A41F02001BD
:100530008162012480F824502046F8BD0024014047
:100540008C00002040420F00704770477047000049
:100550002DE9F0414FF0000704003D467ED0A06A2F
:10056000002628B9E66284F82460204600F07EF870
:100570002046FFF78DFEA16AC90600D420B1A06A0B
:1005800040F01000A06269E0A16A21F4885141F0B6
:100590000201A1626268E169237B0A4347EA4301E1
:1005A0000A43A1684FF48077B94209D0012907D0E6
:1005B0005FF0000194F814C0BCF1010F02D00AE012
:1005C0003946F7E7F3B1A36A43F02003A362E36A75
:1005D00043F00103E3622368D3F804C02CF4694CB0
:1005E0004CEA010CC3F804C021688B68DFF870C0C6
:1005F00003EA0C0313438B60A168B9420BD00129B5
:1006000009D00CE0DFF85CC0A3690CEB43330B436B
:1006100043F40061DFE7218A0D05A5F58015216807
:10062000CB6A23F470032B43CB62216889680E4B9D
:100630001940914208D1E662A16A21F0020141F01D
:100640000101A162BDE8F081A06A20F0020040F043
:100650001000A062E06A40F00100E0620120F1E7D2
:10066000FDF7E1FF00E0FFFFFE0E1FFF70B586B053
:1006700000250646009501950295039500681A49E4
:1006800088422ED11949886940F4007088618869D0
:1006900000F400700490886940F004008861886963
:1006A000694600F0040004907F2000900320019030
:1006B0000F4800F029FA104C0E48C4E900058020CC
:1006C000C4E9025040002061800060612020C4E93C
:1006D0000605204600F0B2F908B1FFF799FE346232
:1006E000666206B070BD00000024014000100240A8
:1006F0000008014008000240580100202DE9F047A1
:10070000894604463B4900683B4F0E1D904688428F
:1007100001D0B84207D1306810F4702F03D0012502
:100720002846BDE8F08794F8240001280CD0012069
:1007300084F824002046FFF70FFE05004FF000006C
:1007400004D084F82400EBE70220EAE7A16A40F62F
:100750000162914341F48071A1622168B94218D1CC
:10076000326812F4702F14D0A16A41F48011A16292
:100770003168490505D5A16A21F4005141F4805141
:10078000A162A16AC9040AD5E16A21F00601E16209
:1007900006E0A26A22F48012A2624968E9E7E062F8
:1007A00084F82400216A15488862216A1448C862C6
:1007B000216A1448086321686FF00200086020680D
:1007C000816841F480718160216843464A464C311A
:1007D000206A00F061F920688168C1F3424107296D
:1007E000816803D041F48011816099E741F4A00150
:1007F000FAE700000024014000280140E702000859
:100800004F0300083503000810B590F821100022AE
:10081000022905D00421816380F82020012010BD29
:1008200001680B6823F00E030B6001680B6823F06E
:1008300001030B6090F84030C46B012101FA03F30F
:10084000636080F8211080F82020104610BD000061
:1008500010B590F821100024022903D004218163EF
:1008600001243DE001680A6822F00E020A60016876
:100870000A6822F001020A601A4A0168914201D115
:10088000012121E0174A1432914201D110211BE0CD
:10089000144A2832914201D1891515E0114A3C329F
:1008A000914201D189140FE00E4A5032914202D197
:1008B0004FF4803108E00B4A6432914202D14FF488
:1008C000801101E04FF08071064A083A5160012121
:1008D00080F82110002180F82010416B01B1884779
:1008E000204610BD080002402DE9F05FC16B0C6886
:1008F00001680B68D0F840C0042202FA0CF2494D9E
:10090000DFF824A1494E4A4FDFF828B1DFF828E18B
:1009100022422CD05A072AD50A68920603D40A68C4
:1009200022F004020A600168A94201D1042219E000
:10093000514501D1402215E0B14202D14FF480620D
:1009400010E0B94202D14FF480420BE0594502D188
:100950004FF4802206E0714502D14FF4800201E09D
:100960004FF080622F4908394A60C16A3BE04FF07E
:10097000020808FA0CF818EA040F4FF000094FF0CB
:10098000010235D05FEA837832D50B689B0605D427
:100990000B6823F00A030B6080F821200168A9424C
:1009A00001D1022219E0514501D1202215E0B142C6
:1009B00002D14FF4007210E0B94202D14FF400525C
:1009C0000BE0594502D14FF4003206E0714502D1E7
:1009D0004FF4001201E04FF00072124908394A60EA
:1009E00080F82090816A00291AD0BDE8F05F08479E
:1009F000082505FA0CF5254212D01B0710D50B6807
:100A000023F00E030B6090F84010C36B02FA01F163
:100A10005960826380F8212080F82090016BE2E722
:100A2000BDE8F09F080002401C0002403000024078
:100A300044000240580002406C00024030B528B328
:100A400008C8134914221944B1FBF2F18900C163AB
:100A500010498163022141771A6843F6F0718A4395
:100A6000D0E900142143D0E902452C432143046915
:100A700021434469214384692143114319600021C2
:100A80004163012242770177084630BD012030BD25
:100A9000F8FFFDBF0000024070B5044690F820004A
:100AA000002501280CD0012084F8200094F8216052
:100AB0000020012E06D084F820000225284670BDB3
:100AC000022070BD022684F82160A06320680668B9
:100AD00026F0010606602046FFF784FCE06A002845
:100AE0002068016802D041F00E0106E021F0040107
:100AF00001602068016841F00A0101602068016816
:100B000041F001010160D9E72DE9F84FDFF8B89114
:100B1000002409F1040A0AF1040B23460F270BF104
:100B2000040EC9E00125A5402A40AA427DD1674EA6
:100B3000D1F804C0ACEB0608B44532D014DCBCF1EB
:100B4000030F3AD009DCBCF1000F2AD0BCF1010F31
:100B50001CD0BCF1020F31D11DE0BCF1110F17D038
:100B6000BCF1120F2AD119E0B8F5881F19D006DCA4
:100B7000B8F5803F15D0B8F5801F1FD111E0B8F54A
:100B8000001F0ED0B8F5041F18D10AE0CB6815E09D
:100B9000CB681B1D12E0CB6808330FE0CB680C3329
:100BA0000CE08B682BB1012B4FF0080303D045619B
:100BB00004E0042302E0056100E00023FF2A01D8DD
:100BC000064601E000F104064FEA840501D9A5F1CB
:100BD0002005D6F8008007FA05FC28EA0C0803FA7D
:100BE00005F548EA0508C6F800804D68ED0062D5B5
:100BF000374DAE6946F00106AE61AD6924F00306DB
:100C000005F001050095334D06EB050CDCF80850A6
:100C1000A607360F07FA06F825EA0805DFF8B880B8
:100C2000404503D14FF0000817E044E0DFF8AC8006
:100C3000404502D14FF001080FE0DFF8A4804045A5
:100C400002D14FF0020808E0DFF89880404502D159
:100C50004FF0030801E04FF0040808FA06F848EAEC
:100C60000508CCF808804D68D9F80060ED034D46C2
:100C700001D5164300E096432E604D68DAF8006017
:100C8000AD03554601D5164300E096432E604D68EE
:100C9000DBF80060ED025D4601D5164300E09643A7
:100CA0002E604D68DEF80060AD02754601D5164332
:100CB00000E096432E60641C0D682A46E5407FF4F0
:100CC00031AFBDE8F88F00000004014000001110B2
:100CD000001002400000014000080140000C0140EB
:100CE00000100140001401400AB10161704709047D
:100CF000FBE700000148806870470000800000208A
:100D000002488168027811448160704780000020A9
:100D1000074810B5016841F010010160032000F0A0
:100D200075F8012000F006F800F024F8002010BD4E
:100D30000020024070B50D4D04464FF47A712878BA
:100D4000B1FBF0F00A490968B1FBF0F000F062FB7A
:100D500048B9102C07D200222146501E00F036F868
:100D600000206C6070BD012070BD0000800000207C
:100D70008C0000200C4808B5816941F001018161B7
:100D8000816901F001010091C16941F08051C161A7
:100D9000C06900F0805000900448416821F0E06193
:100DA00041F00071416008BD0010024000000140A8
:100DB000002809DB00F01F0201219140400980005A
:100DC00000F1E020C0F8001170470000F0B40E4BB5
:100DD0001B680C46C3F30223C3F10705042D00D999
:100DE0000425191D072901D2002300E0DB1E01267E
:100DF00006FA05F1491E214099409E40761E164094
:100E00003143F0BC01F0FBBB0CED00E0064900F003
:100E1000070208684FF6FF03184040EA0220034A21
:100E200010430860704700000CED00E00000FA0578
:100E30002DE9F84305460078354CC00754D0E069E9
:100E40000026C00008D4E06940F08050E061E0690D
:100E5000012600F0805000902E480168C90512D488
:100E60000168804641F480710160FFF743FF074647
:100E700005E000BFFFF73EFFC01B642823D8D8F869
:100E80000000C005F6D5206A10F4407021D0A98872
:100E900001F4407181421CD0206A1F49012220F4D4
:100EA00040700A6000220A602062C00711D0FFF77C
:100EB00021FF074641F2883808E000BFFFF71AFF1C
:100EC000C11B414502D90320BDE8F883206A800791
:100ED000F4D5206A696820F44070084320621EB18E
:100EE000E06920F08050E0612878800705D56068CF
:100EF000A96820F44040084360602878C00605D502
:100F00006068E96820F48000084360600020DBE747
:100F10000010024000700040400442422DE9F047BA
:100F20000F46050061D0434E306800F00700B8421C
:100F300009D2306820F0070038433060306800F094
:100F40000700B84251D128683B4C810712D54007B1
:100F500003D5606840F4E06060602878000703D53E
:100F6000606840F4605060606068A96820F0F0003C
:100F7000084360602878C00728D06868012810D02E
:100F80002168022810D0890700292EDA616821F033
:100F9000030101436160FFF7ADFE804641F28839ED
:100FA0000DE021688903EFE78901EDE7FFF7A2FE75
:100FB000A0EB0801494502D90320BDE8F08760682D
:100FC000696800F00C00B0EB810FEFD1306800F0E1
:100FD0000700B8420BD9306820F007003843306072
:100FE000306800F00700B84201D00120E5E728781A
:100FF000400705D56068E96820F4E0600843606058
:101000002878000706D56068296920F4605040EA16
:10101000C100606000F038F86168084AC1F303114C
:10102000515CC8400649086006480068FFF782FE28
:101030000020C2E70020024000100240D43800081F
:101040008C0000208400002004480549006849689D
:10105000044AC1F30221515CC84070478C00002053
:1010600000100240E4380008044805490068496857
:10107000044AC1F3C221515CC84070478C00002073
:1010800000100240E438000812A185B00FC98DE8B5
:101090000F0014A0144A006804905168134801F02E
:1010A0000C03042B10D0082B0ED1C1F38343C903CA
:1010B0001DF803000AD5516804AAC1F34041515CF0
:1010C0000A4A5043B0FBF1F005B070470849484365
:1010D000FAE7000002030405060708090A0B0C0DD5
:1010E0000E0F1010010200000010024000127A00E2
:1010F00000093D002DE9F84F040070D02078C04D64
:10110000C00749D06868C0F38100012807D068682B
:10111000C0F38100022809D16868C00306D5286899
:10112000800339D560680028E7D035E06068B0F505
:10113000803F0BD010B1B0F5A02F11D0286820F45B
:1011400080302860286820F4802002E0286840F47D
:1011500080302860606890B1FFF7CCFD06460AE059
:10116000286840F480202860F0E700BFFFF7C2FD48
:10117000801B642873D828688003F7D50CE0FFF73C
:10118000B9FD064605E000BFFFF7B4FD801B6428EB
:10119000F0D828688003F7D420789A4E80074FF063
:1011A00001094FF0000839D5686810F00C0F07D01E
:1011B0006868C0F38100022809D16868C00306D4BA
:1011C0002868800714D52069012808D110E020691B
:1011D000B0B1C6F80090FFF78DFD074605E00AE1C3
:1011E000FFF788FDC01B0228C4D828688007F7D500
:1011F0002868616920F0F80040EAC10028600DE02D
:10120000C6F80080FFF776FD074604E0FFF772FDA1
:10121000C01B022823D828688007F7D4207800074D
:101220002CD57948A169D9B1C0F80090FFF762FDCB
:10123000074604E0FFF75EFDC01B02280FD8686A6E
:101240008007F7D571484FF4FA510068B0FBF1F010
:10125000009000BF0098411E0091FAD20EE080E09D
:10126000C0F80080FFF746FD074604E0FFF742FDA7
:10127000C01B022875D8686A8007F7D42078400719
:1012800060D5E8690027C00008D4E86940F08050C4
:10129000E861E869012700F0805000905C4801682F
:1012A000C90513D40168834641F480710160FFF7DA
:1012B00021FD824606E000BFFFF71CFDA0EB0A00FF
:1012C00064284ED8DBF80000C005F5D5E068012899
:1012D0000AD008B1052813D0286A20F0010028623E
:1012E000286A20F0040002E0286A40F00100286229
:1012F000E06841F2883B98B1FFF7FCFC82460BE0C6
:10130000286A40F004002862EEE700BFFFF7F2FC15
:10131000A0EB0A0159455AD8286A8007F6D50CE097
:10132000FFF7E8FC824605E0FFF7E4FCA0EB0A01CA
:1013300059454CD8286A8007F6D41FB1E86920F0D7
:101340008050E861E06988B36968C1F381010229CE
:1013500044D00228C6F8608004D0FFF7CBFC0446D6
:1013600038E034E0FFF7C6FC074604E0FFF7C2FCB4
:10137000C01B02282BD828688001F7D4206AB0F55A
:10138000803F05D16868A16820F400300843686098
:10139000D4E908010843696821F4741108436860BE
:1013A000C6F86090FFF7A6FC044606E025E000BF03
:1013B000FFF7A0FC001B022809D828688001F7D598
:1013C0001BE000BFFFF796FC001B022802D9032098
:1013D000BDE8F88F28688001F4D40EE00128F7D02A
:1013E0006868226A00F48031914204D1616A00F495
:1013F0007010884201D00120EAE70020E8E70000F1
:101400000010024000004242800442428C00002052
:101410000070004010B5401EB0F1807F01D3012064
:1014200010BD4FF0E02460610F21601701F0E7F874
:101430000020A06107202061002010BD7047704788
:10144000F8B5026804461068D168536910F00F0FB0
:101450004FF0000553D003F0010601F490773743B5
:101460005FD0C20705D0CA0503D5226C42F0010245
:101470002264420705D5DA0703D0226C42F002024B
:101480002264820705D5DA0703D0226C42F00402F9
:101490002264020707D501F02002324303D0226CF8
:1014A00042F008022264226C002A34D0800604D55F
:1014B000880602D5204600F096FF20684069216C1E
:1014C000C0F38010090700D430B3204600F073FF4A
:1014D0002068416949061BD5416921F040014161FD
:1014E000A06BA8B158494163A06BFFF7B1F9002880
:1014F00011D0A06B416B01B0BDE8F04008478306F6
:101500000FD58B060DD52046BDE8F84000F06BBF27
:101510002046FFF794FFF8BD2046FFF790FF2564B3
:10152000F8BD266B2023012E52D1C60650D5CE061B
:101530004ED5106850680090506940062AD5A16BBE
:10154000086840680004000CEAD0A68D8642E7D9FE
:10155000E0858869202818D0D06820F48070D06099
:101560002068416921F0010141612068416921F051
:101570004001416184F83E3025632068C16821F054
:101580001001C160A06BFFF73FF9A08DE18D401AFB
:1015900081B219E0A08DE18D401A81B2E08D002862
:1015A000BED00029BCD0D06820F49070D0602068F4
:1015B000426922F00102426184F83E3025632068CE
:1015C000C26822F01002C2602046FFF737FFF8BD64
:1015D00005062BD50D0629D594F83D002128F6D116
:1015E000A068B0F5805F01D12069B0B1206A411CCC
:1015F0002162216800784860E08C401E0004000CE5
:10160000E084E4D12068C16821F08001C1602068D5
:10161000C16841F04001C160F8BD206A0088C0F394
:1016200008005060206A801C2062E5E74006F3D580
:101630004806F1D5D168204621F04001D16084F8F8
:101640003D3000F068FAF8BDA723000870B504002B
:1016500004D094F83D00002510B106E0012070BDD3
:1016600084F83C50204600F023F8242084F83D0004
:101670002068C16821F40051C160204600F00EFFCF
:101680002068016921F4904101612068416921F0DD
:101690002A0141612068C16841F40051C16025649C
:1016A000202084F83D0084F83E00002070BD00003A
:1016B00030B585B00024009401940294039400682E
:1016C000184988422CD11848816941F480418161D0
:1016D000816901F480410491816941F004018161D3
:1016E0008069124D00F0040004904FF400700090E7
:1016F000022001900320039069462846FFF704FA70
:101700002815CDE90004694628460294FFF7FCF944
:10171000002211462520FFF759FB2520FFF748FB43
:1017200005B030BD00380140001002400008014003
:1017300090F83E30202B0ED159B152B190F83C3088
:10174000012B08D0012380F83C300023036300F014
:1017500001BF012070470220704700002DE9F05FB3
:10176000BE4900680968884273D10822BC49BB4859
:10177000FFF7DEFFDFF8E892B84FA9F10E08843FCB
:1017800099F80010397099F80100002408F1160545
:10179000A9F16D0AA5F12506032802D001287AD007
:1017A0008EE0AE4B7870663B9AF8081019809AF874
:1017B000091059809AF80A1099809AF80B10D9806C
:1017C0009AF80C101981BAF812105981BAF814104D
:1017D0009981BAF80E10D981BAF810001882BB4668
:1017E000474698F80010287800F0C8FD58827978AC
:1017F000687800F0C3FD9882B978A87800F0BEFD43
:10180000D882F978E87800F0B9FD18833979287919
:1018100000F0B4FD5883B979687900F0AFFD988382
:101820007979687900F0AAFDD88396F901001884C7
:1018300096F90000588496F90200988496F90300FE
:10184000D884B9F8040047BA78008BF80200002069
:101850000BE06EE033F810100BEB40024FEA112C56
:1018600082F803C0401C117180B2B842F2D3032049
:1018700000EB470081B27948843800F0D1FE0BEBD1
:101880004701C870000A0871052000EB470082B2CA
:10189000142310E0FFE778700220B870E879F87040
:1018A0006E483C710521843800F0BAFE7871000A58
:1018B0001423B871072269496848843900F0D2F8C6
:1018C00099F801004A46052833D16549D3780120AB
:1018D000C91F092B43D008DC092B2AD2DFE803F00B
:1018E00058667482909EB21D23000E2B30D00DDC02
:1018F0000A2B3AD00B2B1ED00C2B22D00D2B18D13B
:101900003079012815D1F078401C26E0612B33D0C6
:10191000622B34D0632B0CD133E03079012808D10D
:101920007078401C04E03079012802D17078401EA4
:101930007070BDE8F09F30790128FAD1B078401C72
:1019400004E030790128F4D1B078401EB070F0E79F
:1019500030790128EDD1F078401EF070E9E7307958
:101960000128E6D130780A3004E030790128E0D14E
:1019700030780A383070DCE78AF8004001E08AF8F5
:1019800000002C706C70AC70EC702C716C7162E0AB
:1019900099F804202AB1FF2ACBD128706C71087005
:1019A000C7E72C7088F800400C70C2E799F8042053
:1019B0002AB1FF2ABDD168706C714870B9E76C70AC
:1019C00088F801404C70B4E799F804202AB1FF2A46
:1019D000AFD1A8706C718870ABE7AC7088F802402A
:1019E0008C70A6E799F804202AB1FF2AA1D1E870EB
:1019F0006C71C8709DE7EC7088F80340CC7098E774
:101A000099F804202AB1FF2A93D128716C710871CA
:101A10008FE72C7188F804400C718AE799F804204C
:101A20004AB1FF2A85D1687148712C706C70AC7016
:101A3000EC702C717DE74C7188F8054088F8064001
:101A40006C7176E799F804202AB1FF2A86D1A87133
:101A5000087088716DE7AC718C716AE71401002021
:101A60006D0000202DE9F843044690F83D001F4624
:101A700016460D4620284CD1C5B1BEB194F83C00A5
:101A8000012846D0012084F83C004FF00008C4F83B
:101A90004080212084F83D00FFF72CF9A684814680
:101AA000E684A068B0F5805F03D004E00120BDE8C3
:101AB000F883206928B12E465FF0000584F83C8049
:101AC0000EE00026FAE78021204600F05EFDA0B976
:101AD000AEB116F8010B21684860E08C401EE0842E
:101AE000E08C4B464FF0000200970028EBD14FF0FE
:101AF0004001204600F049FD30B10320D7E735F81A
:101B0000020BC0F30800E6E7202084F83D00002027
:101B1000CDE70220CBE77047FEE70000FEB50024CA
:101B20002E48009401942C4902940160891581602B
:101B3000012505730475072606614FF46021446092
:101B4000C161FEF705FD08B172B6FEE78DE87000D1
:101B500069462248FEF77AFC08B172B6FEE7022415
:101B6000CDE9005469461D48FEF770FC08B172B615
:101B7000FEE700940324694618480194FEF766FCCA
:101B800008B172B6FEE70094042469461348019434
:101B9000FEF75CFC08B172B6FEE7009405246946C6
:101BA0000E480194FEF752FC08B172B6FEE70094AD
:101BB0000624694609480194FEF748FC08B172B64C
:101BC000FEE7CDE9004669460448FEF73FFC0028E1
:101BD00001D072B6FEE7FEBD00240140E400002003
:101BE00070B586B000241D480094019402940394BB
:101BF000816941F020018161816901F02001049136
:101C0000816941F004018161816901F0040104915D
:101C1000816941F0080181618069114E00F008007E
:101C20004FF6E2750490002229463046FFF75CF833
:101C30004FF4C07000900B48CDE9010469460A4892
:101C4000FEF762FF01200095CDE901040220039018
:101C500069463046FEF758FF06B070BD00100240DE
:101C6000000C01400000111000080140FEE7FEE7F3
:101C700070477047FFF744B830B593B028216846E5
:101C8000FEF7A2FA14210AA8FEF79EFA0025012009
:101C90000F9510951195010412958DE8230004907D
:101CA0004FF4E010CDE90810022407946846FFF7CE
:101CB00021FA08B172B6FEE70AA90F2081E83100C7
:101CC0004FF48060CDE90D0502210AA8FFF726F93F
:101CD00008B172B6FEE74FF4004011900F940FA8C0
:101CE000FFF7A6F8002801D072B6FEE713B030BDAA
:101CF000704700002DE9F05F504D0227002628783C
:101D0000DFF83CA1A5F175044FF48041A5F1160858
:101D1000A5F11B0B04F15009012801D060B119E0B5
:101D200001225046FEF7E0FF00224FF4807150463A
:101D3000FEF7DAFF2F7010E0404866700F3800227F
:101D400006705046FEF7D0FF00224FF480715046D7
:101D5000FEF7CAFF2878022858D1FEF7CBFF616B47
:101D6000401AB0F57A7F07D96078401C607088F817
:101D70000070FEF7BFFF606399F9000061784F467D
:101D8000884208DA667000224FF480715046FEF7F0
:101D9000ABFF03202870B94697F900000A2790FB93
:101DA000F7F1494200EBC10261788A420DDA90FBFB
:101DB000F7F2524202EB82021044884205DBA0692E
:101DC000FEF728FB20728BF8000099F9000090FBC9
:101DD000F7F1494201EB810108446178884204DA55
:101DE000012211025046FEF77FFF99F9000090FB97
:101DF000F7F1A1EB810108446178884206DAA06915
:101E0000FEF708FB0D492072203908702878032856
:101E10000ED19BF8001099F90220914206DC074987
:101E200099F9010020390978814203DA88F80060C5
:101E3000BDE8F09F012188F80010F9E77500002047
:101E4000000C01402DE9F05F514D0227A5F175040A
:101E500068780026DFF83CB14FF40051A5F1160870
:101E600004F1550A04F15009012801D058B117E0D6
:101E700001225846FEF738FF002280215846FEF71F
:101E800033FF6F700FE04248A6700F380022467093
:101E90005846FEF729FF002280215846FEF724FF0E
:101EA000687802285CD1FEF725FFA16B401AB0F5D7
:101EB0007A7F07D9A078401CA07088F80170FEF7DF
:101EC00019FFA06399F90000A1784F46884207DA0C
:101ED000A670002280215846FEF706FF0320687096
:101EE000B94697F900000A2790FBF7F1494200EB49
:101EF000C102A1788A4210DA90FBF7F2524202EB5B
:101F000082021044884208DBE069FEF783FA204928
:101F100060721B394A781044487099F9000090FBB0
:101F2000F7F1494201EB81010844A178884204DAC3
:101F3000012280215846FEF7D7FE99F9000090FB58
:101F4000F7F1A1EB81010844A178884208DAE06941
:101F5000FEF760FA60729AF8012010448AF80100D6
:101F6000687803280ED10A4899F902201B38417875
:101F7000914205DC9AF8011099F90100814203DAD7
:101F800088F80160BDE8F09F012188F80110F9E7A9
:101F900075000020000C01402DE9F05F4F4D022735
:101FA0000026A878DFF838A1A5F175044FF4805118
:101FB000A5F11608A5F11B0B04F15009012801D069
:101FC00058B117E001225046FEF78EFE0022402154
:101FD0005046FEF789FEAF700FE04048E6700F38BC
:101FE000002286705046FEF77FFE002240215046B8
:101FF000FEF77AFEA878022857D1FEF77BFEE16B48
:10200000401AB0F57A7F07D9E078401CE07088F874
:102010000270FEF76FFEE06399F90000E1784F4629
:10202000884207DAE670002240215046FEF75CFE47
:102030000320A870B94697F900000A2790FBF7F132
:10204000494200EBC102E1788A420DDA90FBF7F2D7
:10205000524202EB82021044884205DB206AFEF7FE
:10206000D9F9A0728BF8020099F9000090FBF7F102
:10207000494201EB81010844E178884204DA0122F7
:1020800040215046FEF730FE99F9000090FBF7F131
:10209000A1EB81010844E178884206DA206AFEF764
:1020A000B9F90E49A07220398870A87803280ED19A
:1020B0009BF8021099F90220914206DC074999F930
:1020C000010020398978814203DA88F80260BDE88E
:1020D000F09F012188F80210F9E700007500002048
:1020E000000C01402DE9F05F4E4D02270026E878F4
:1020F000DFF834A1A5F175044FF40061A5F11608CD
:10210000A5F1200B04F15009012801D058B117E0C6
:1021100001225046FEF7E8FD002220215046FEF73E
:10212000E3FDEF700FE03F4826710F380022C670C4
:102130005046FEF7D9FD002220215046FEF7D4FD7F
:10214000E878022856D1FEF7D5FD216C401AB0F58B
:102150007A7F07D92079401C207188F80370FEF738
:10216000C9FD206499F9000021794F46884207DAB9
:102170002671002220215046FEF7B6FD0320E870AC
:10218000B94697F900000A2790FBF7F1494201EBA5
:10219000C1010A1821798A420CDC90FBF7F2A2EB0C
:1021A000C2021044884205DB606AFEF733F9E07230
:1021B0008BF8030099F9000090FBF7F1A1EBC10146
:1021C00008442179884204DA012220215046FEF792
:1021D0008BFD99F9000090FBF7F1494200EB4100BB
:1021E0002179884206DA606AFEF714F90D49E07237
:1021F0001B39C870E87803280ED10A4899F90220E3
:102200001B38C178914205DC9BF8031099F9010055
:10221000814203DA88F80360BDE8F09F012188F865
:102220000310F9E775000020000C01402DE9F05F74
:10223000504D0227A5F1750428790026DFF838A152
:102240004FF48061A5F1160804F15A0B04F150090E
:10225000012801D060B119E001225046FEF744FD8B
:1022600000224FF400415046FEF73EFD2F7110E072
:10227000404866710F38002206715046FEF734FD63
:1022800000224FF400415046FEF72EFD2879022827
:1022900058D1FEF72FFD616C401AB0F57A7F07D94F
:1022A0006079401C607188F80470FEF723FD60645B
:1022B00099F9000061794F46884208DA6671002278
:1022C0004FF400415046FEF70FFD03202871B94638
:1022D00097F900000A2790FBF7F1494200EBC10291
:1022E00061798A420EDC90FBF7F2524202EB8202E5
:1022F0001044884206DBA06AFEF78CF81D49207363
:102300002039087199F9000090FBF7F1494201EB7F
:10231000810108446179884204DA0122D1035046E0
:10232000FEF7E2FC99F9000090FBF7F1A1EB8101C7
:1023300008446179884205DAA06AFEF76BF82073D9
:102340008BF80400287903280ED19BF8041099F922
:102350000220914206DC074999F9010020390979E8
:10236000814203DA88F80460BDE8F09F012188F813
:102370000410F9E775000020000C014002000AD0AB
:10238000022A0AD0032805D1012909D0002901D148
:1023900044F24E7070470020704743F6207070473B
:1023A00044F64F30704710B5406A0021C185C184A2
:1023B000FFF745F810BD0168CA6822F49072CA6040
:1023C00001684A6922F001024A61016B012904D1C6
:1023D0000168CA6822F01002CA60202180F83E100D
:1023E00000210163704708B590F83E10222901D002
:1023F000022008BD82684FF480539A4201D10169DE
:1024000021B1816A9A421BD04AB10AE00268816A0E
:102410005268C2F308020A80816A891C08E00269D6
:1024200072B10268526802F07F020A70816A491C28
:102430008162C18D491E0904090CC18503D019E0D0
:1024400002685268F1E70168CA6822F02002CA6097
:102450000168CA6822F48072CA6001684A6922F081
:1024600001024A61202180F83E10016B012903D04E
:10247000FFF774F9002008BD002101630168CA68F4
:1024800022F01002CA6001680A68D20602D50A6802
:1024900049680091818DFEF7D1FFEBE770B50446E6
:1024A00000680169E26821F440511143016121692A
:1024B000A0680843616908432168CA6841F20C6357
:1024C0009A430243CA6020684169A26921F44071BD
:1024D000114341611E492068884202D1FEF7C4FDC4
:1024E00001E0FEF7B1FD00EBC00101EB00126068F6
:1024F00064218000B2FBF0F3B3FBF1F36FF0180638
:102500007343B2FBF0F5B2FBF0F605EB8305322323
:1025100003EB0515B5FBF1F5B6FBF1F605F0F0059B
:1025200005EB0615B2FBF0F6B2FBF0F0B0FBF1F0F4
:102530006FF01802504306EB800003EB0010B0FB75
:10254000F1F0216800F00F002844886070BD0000A1
:102550000038014081628285C28500210164222207
:1025600080F83E2080F83C100168CA6842F480720E
:10257000CA6001684A6942F001024A610068C168A4
:1025800041F02001C160002070472DE9F0419846DC
:1025900017460E460446069D1DE0681C1BD02DB153
:1025A000FEF7A8FBA0EB0800A84214D92068C16878
:1025B00021F4D071C1602068416921F001014161BD
:1025C000202084F83D0084F83E00002084F83C0080
:1025D0000320BDE8F0812068006836EA000004D0DE
:1025E0000020B842D9D00020F3E70120F9E700002D
:1025F0000148FEF725BF000014010020FEE709078F
:10260000090E002804DB00F1E02080F80014704778
:1026100000F00F0000F1E02080F8141D704700006A
:1026200070B5094DFF231A4605F5807606E000BF18
:1026300010F8014B54402A5D5A40335D491E89B25F
:10264000F6D242EA032070BDD436000808B5FEF782
:102650005FFBFFF711FBFFF7C3FAF948416941F04F
:10266000010141614069002200F001000090114623
:102670000B20FEF7ABFB0B20FEF79AFBFFF74EFAA1
:10268000F148F0490C2201604FF4164141600021ED
:102690008160C160C0E904128161C161FEF7D6FFAB
:1026A00008B172B6FEE70822E849E748FFF740F8AC
:1026B000E648E64AC01FD21F01784078D27841EA46
:1026C0004000E249C91F8978890041EAC2010843F4
:1026D000DE49C91F097940EA0111DC48C01F407971
:1026E00041EA4011D948C01F807941EA8010D7499A
:1026F0000831C87100F078FAD44DD3491D3D3E39F8
:102700002871072201F10E00FDF7F8FFCE49CE48EF
:102710003E393E38B1F80290B1F80480B1F806B005
:102720000F89B1F80AA000888989009100F0DFFCC8
:102730004FF06632C64B00F0EDFC0022C54B00F0B6
:1027400051FB00F075FAA5F150040646A061484619
:1027500000F0CDFC4FF06632BD4B00F0DBFC0022F8
:10276000BC4B00F03FFB00F063FAE061404600F034
:10277000BEFC4FF06632B64B00F0CCFC0022B54BED
:1027800000F030FB00F054FA2062584600F0AFFC35
:102790004FF06632AE4B00F0BDFC0022AD4B00F0B6
:1027A00021FB00F045FA6062384600F0A0FC4FF0D3
:1027B0006632A74B00F0AEFC0022A64B00F012FBE5
:1027C00000F036FAA062504600F091FC4FF06632FD
:1027D0009F4B00F09FFC00229E4B00F003FB00F09B
:1027E00027FAE062009800F082FC4FF06632984BC6
:1027F00000F090FC0022974B00F0F4FA00F018FA79
:1028000020633046FDF706FE2072E069FDF702FE08
:102810006072206AFDF7FEFDA072606AFDF7FAFDA6
:10282000E072A06AFDF7F6FDDFF82C8220734146C6
:10283000E06A00F083FE00F055FE884E884F324675
:102840003B4600F0CFFA00F025FCE0814146206BCA
:1028500000F074FE00F046FE32463B4600F0C2FA3D
:1028600000F018FC208295F901000C2801DD002001
:1028700002E0002801DA0C20687095F902000C28AB
:1028800001DD002002E0002801DA0C20A87095F993
:1028900000003C2801DD0A2002E00A2801DA3C2081
:1028A000287095F90300142801DD002002E00028BB
:1028B00001DA1420E870207801287DD1FFF71AFA98
:1028C000FFF7C0FAFFF768FBFFF70CFCFFF7AEFC61
:1028D000DFF8789109F1080999F80500012801D07D
:1028E00080B121E0DFF87CA1012251025046FEF7C1
:1028F000FBF9002202215046FEF7F6F9022089F882
:10290000050015E051490020C91FA0714871DFF88A
:1029100054A1024602215046FEF7E6F900224FF488
:1029200000715046FEF7E0F999F8050002287BD1C6
:10293000FEF7E0F9A16C401AB0F57A7F0AD9A079C8
:102940004249401CA0710E39022048718871FEF77F
:10295000D1F9A06495F90000A1790A30884211DA12
:102960000020DFF800A1A07102464FF4007150462C
:10297000FEF7BAF9002202215046FEF7B5F903200E
:1029800089F8050095F90010A07981420CD1DFF893
:10299000D4A000224FF400715046FEF7A5F90022A2
:1029A00002215046FEF7A0F995F90000A179801C9C
:1029B00088420EDC002200E072E0DFF8A8A04FF4AD
:1029C00000715046FEF790F9012202215046FEF7B1
:1029D0008BF995F900004FF00A0A90FBFAF1494291
:1029E00001EB81010844A17988421DDC4146E06A7F
:1029F00000F0A4FD00F076FD32463B4600F0F2F90F
:102A000000F048FBE0814146206B00F097FD00F0AC
:102A100069FD32463B4600F0E5F900F03BFB2082C1
:102A2000A4F812A0A4F814A099F8050003283BD13B
:102A3000218AE089814223D9B0FBF1F022E0000035
:102A40000010024000380140140100206D000020F9
:102A500066660A4000FEAF4000007A44BA490C02A4
:102A60002B87F83F000C0140012000E000205C496A
:102A70004871A08A618A884221D9B1FBF0F020E038
:102A8000B1FBF0F06FF018014843642101EB8000C6
:102A900095F903108842E9DCE6E751490120887185
:102AA00002E04F4800218171207800287FF400AEB9
:102AB0004B4E1636B07901280ED0D8B170E0B0FB7D
:102AC000F1F06FF018014843642101EB800095F9A3
:102AD00003108842E5DCE0E7424F012291033846CB
:102AE000FEF702F90022B9153846FEF7FDF802207C
:102AF000B07159E03A490020C91D3A4F087048703A
:102B00008870C8700871487130707070B070F07063
:102B10003071C91F7071087048708870C870087172
:102B20004871887100224FF480413846FEF7DCF886
:102B3000002279143846FEF7D7F80022B914384637
:102B4000FEF7D2F80022F9143846FEF7CDF800223D
:102B500039153846FEF7C8F8002202213846FEF73C
:102B6000C3F80022B9153846FEF7BEF800228021CE
:102B70003846FEF7B9F8002240213846FEF7B4F88F
:102B8000002220213846FEF7AFF800224FF4004122
:102B90003846FEF7A9F8002279153846FEF7A4F862
:102BA000B07902287FF484ADFEF7A4F8E16C401AF6
:102BB000B0F57A7F05D9E079401CE071FEF79AF80C
:102BC000E06495F90000E17900EB80000A3088426A
:102BD000BFF66EAD0020E0710320B07168E5000023
:102BE0005F000020000C0140F0B510490F788E788E
:102BF000CC780D794B798A79497847B129B126B1DA
:102C00001CB115B10BB1002A00D10020F0BD002984
:102C1000FBD1002EF9D1002CF7D1002DF5D1002BDE
:102C2000F3D1002AF1D10120F0BD00007500002091
:102C300021F00042A2F16052B2F5801F01F0004382
:102C400028BFD2F17F6C0BD95FEA001C43EAC202B5
:102C500042EB507018BF704728BF20F0010070474A
:102C6000B2F5801FBCBF184670474FEA410C1CF5F7
:102C7000001F02D2084600F028BD70B500F0F4FA3B
:102C800000000089FFF7F6BF4FF00040A0F580007C
:102C90007047000010B591EA030F48BF83F000436E
:102CA00000F13E83841A71EB030C05D2121943EB39
:102CB0000C03001B61EB0C01DFF824E14FEA115417
:102CC000A4EB135C1EEA430F18BF9EEA445F73D067
:102CD00023EA0E03DCF1200E21EA045143F48013B1
:102CE00032D322FA0CFE10EB0E0023FA0CFE41EB5D
:102CF0000E01CCF1200E03FA0EFE10EB0E0051F186
:102D00000001B1F5801FCCF1200E32D201EB04514D
:102D100012FA0EF2BDE8104058BF7047401C38BF91
:102D20005FEA420218BF7047002814BF20F001007C
:102D300041F100014FEA410313F5001F38BF70470E
:102D4000A1F1C04100F0DEBA012A43EB0302ACF16D
:102D5000200CDCF11F0E32BF4FF0000E23FA0CF3F3
:102D600010EB030041EB0451B4EB115FD0D0A1EBA9
:102D7000045101F5801149085FEA300001EB04516C
:102D80000ED350F1000038BF12FA0EFE08D1BDE894
:102D90001040C9E7401C38BF5FEA4202CAD1C3E70E
:102DA000BDE810404FEA410313F5001F38BF7047DC
:102DB000A1F1C04100F0A6BA9EEA445F08D011EA32
:102DC0005E0FBDE8104004BF01F0004100207047D5
:102DD000BDE8104070B500F047FA00BF64FBBE3E8E
:102DE0000000E0FF2DE9C04130B4DFF8A0C23CEAAA
:102DF000111418BF3CEA131400F0EC8081EA0305BB
:102E00001CEA111444EAD57418BF1CEA131500F02B
:102E1000C780A4EB05044FF0004545EAC12145EA0F
:102E2000C32341EA505143EA525304F17F7499425B
:102E300004F500344FEAC0204FEAC22208BF904296
:102E400000F09C804FEA13650FF24016765D4FEA62
:102E5000134506FB05F7C7F1807706FB07F74FEA36
:102E6000D737A7FB03687642C8F58038A7FB06CEA4
:102E700038BFA8F1010807FB08E64FF0000EA6FBDB
:102E8000028CE6FB03CEDCF1000CCEF1004E38BF25
:102E9000AEF1010EA6FB0C584FF000074FF00005F5
:102EA000E6FB0E87A1FB08C6A0FB07CE16EB0E06BD
:102EB00045F10005E1FB076515F1E04E7EBFA4F585
:102EC00080345FEA46066D4116F1800745F1000542
:102ED0004FEA17274FEA066647EA0567A6F1DE467E
:102EE000B6F1805F4FEA15251FD9384624F0010C52
:102EF00005EBC471BCF1FE6F01EB0C1102D8F0BC04
:102F0000BDE8008124425CBF01F5801E9EEAC47FBB
:102F100002D4F0BCBDE80081244238D4F0BCA1F159
:102F2000C041BDE8004100F0EDB94FEAD22242EACB
:102F300043524FEAD323A7FB02864FEAD02040EA50
:102F4000415007FB03661EEA0E0F4FEAD12105FB35
:102F5000026658BFA6EB0056B6EB00564FEA520E7B
:102F60004EEAC37E18EB0E0E56EB530EBDD518EB92
:102F700002085E417F1C55F10005B6E74FF480154D
:102F80004FF000074FF000064FF00008ADE7F0BC2F
:102F90004FF0000001F1C04101F00041BDE80081A7
:102FA00011EA0C1F0CEA131500D00CE013EA0C1FF9
:102FB00000F025804FF00000F0BC81EA030101F031
:102FC0000041BDE80081F0BCBDE8004181EA030199
:102FD00000F098B9F0BCBDE8004170B500F044F9CC
:102FE000097EFC3E00F007B881EA03014FF00000C3
:102FF00001F00041704781EA030100F083B9F0BCA1
:10300000BDE800414FF0000021497047FFFDFBF98A
:10301000F7F5F4F2F0EEEDEBE9E8E6E4E3E1E0DE0B
:10302000DDDBDAD8D7D5D4D3D1D0CFCDCCCBCAC87D
:10303000C7C6C5C4C2C1C0BFBEBDBCBBBAB9B8B7A4
:10304000B6B5B4B3B2B1B0AFAEADACABAAA9A8A897
:10305000A7A6A5A4A3A3A2A1A09F9F9E9D9C9C9B65
:103060009A99999897979695959493939291919010
:103070008F8F8E8E8D8C8C8B8B8A898988888787A1
:103080008685858484838382828181800000FF0716
:103090000000F87F4FEA1153A3F58063D3F11E03BC
:1030A000A8BFD3F1200C08DB4FF0004242EAC12256
:1030B00052EA505232FA03F0704709420BD4102BF7
:1030C000C4BF0020704703F5787CBCF1FF3F05D0FA
:1030D0004FF0FF3070474FF00000704770B500F0C0
:1030E000C3F800BF4992248000207047F0E7B0FA8F
:1030F00080F310FA03F10AD0C3F11D0303F58063D6
:103100004FEA41504FEA035202EBD12170474FF092
:1031100000007047DFF848C170B51CEA111E1EBFE1
:103120001CEA13159EEA0C0F95EA0C0F00F06F8055
:1031300081EA030423EA4C134EEAD47E21EA4C11BF
:1031400041F4801143F48013AE44A1FB024CA0FB78
:103150000365AEF17F7E361955EB0C05A1FB034CE0
:103160004CF10003A0FB021C16EB0C06654153F169
:103170000003094218BF46F0010613F4007F0BD18B
:103180004FEA03314FEA0530340341EA155140EA72
:1031900016506FF003020AE04FEAC3214FEAC52040
:1031A000F40241EA555140EA56506FF0020202EB38
:1031B0002E4201EB025585EACE710AD05FEA440C3B
:1031C00018BF24F0004450F1000041F1000120EA52
:1031D000D47040F2FE7C624500D270BDA84214BF9C
:1031E0004FF080444FF04044002E08BF0024BEF151
:1031F000806FA8BFA1F1C041BDE8704080F282801D
:103200004FF0000001F1C04101F0004170479EEA1B
:103210000C0F0CEA131518BF95EA0C0F06D04FF0EF
:10322000000081EA030E0EF0004170BD00F01CF8B2
:103230008900013E00F007B800F009B84FEA430CDE
:103240005FEA5C5C08D081EA030100F05BB84FEAFA
:10325000410C5FEA5C5CF6D14FF000000149704719
:103260000000FF070000F87F0EF1020E2EF0030EA3
:103270005EF8046B364205D4012A43EB030515F5CD
:10328000001F12D8012841EB010C1CF5001F0CD8BF
:103290000ED14FEAD17C15F5001F0CEB4C0C0CF154
:1032A000020C08BF4CEBD37C04E04FF0080C01E0AB
:1032B0004FEAD37C0CEB4C0526FA05F606F0070620
:1032C000B6F1040C06D20EEB860CBDE870404CF053
:1032D000010C6047DFE80CF0090B02024FF00041DF
:1032E0004FF00000A1F5002170BD194610460128DD
:1032F00051EB010418BFD4F5001484BF002001F085
:10330000004170BD0808A0F500114FEA3101704777
:1033100010B591EA030F48BF83F000433FF5C2ACFC
:10332000841A71EB030C07D212198CF0004C43EB9A
:103330000C03001B61EB0C01DFF8A4E14FEA115410
:10334000A4EB135C1EEA430F18BF9EEA445F00F033
:10335000B08023EA6E03524221EA0451C3EB6E03AC
:1033600038BF5B1EDCF1200E25D322FA0CFE10EBD9
:103370000E0043FA0CFE41EB0E01CCF1200E03FAD5
:103380000EFE10EB0E0051F10001CCF1200E29D4FD
:1033900012FA0EF201EB0451BDE8104058BF70471D
:1033A000401C1CBFB2F1004F704700280CBF491CE5
:1033B00020F00100704712EB020E43EB030218BF2E
:1033C0004FF0010E4EEA4202ACF1200CDCF11E0E71
:1033D00054D943FA0CFE10EB0E0051F1FF31CCF141
:1033E0001E0ED5D50EF1010E12FA0EFE404141EB34
:1033F000010101EB445C5FEA5C5C10D910EBDE700C
:1034000001EB045138BFBEF1004FBDE8104018BFBA
:10341000704700280CBF491C20F00100704730D2D3
:103420004FEAD42C11F5001124F400641BD0B1FA3A
:1034300081F20B3AA41AA41ED2F12003914030FA73
:1034400003F31943904001EBCC71002C01EB0451C4
:10345000BDE81040A8BF704701F1C0414FF0000027
:1034600001F000417047B0FA80F310FA03F100D187
:1034700010BDE41A173C4805C90AE4E701EB045102
:1034800010BD491001EB0451BDE810404FEA300077
:1034900002E04FF0000170474A0008BF0042F8D038
:1034A000B2F5001F28BF704701F000414FF0000047
:1034B00070479EEA445F07D011EA5E0FBDE81040F6
:1034C00004BF002100207047BDE8104070B5FFF731
:1034D000CBFE00BF40DFF63E83F000411046704750
:1034E0000000E0FF43004FEAD30C4FEA3C0C43409E
:1034F0001FBF40070CF1605113F0FE4F70471CF0E6
:10350000006F03D100200CF0004170470CF0004325
:1035100043EA507010B540EACC0000F090F800BFCC
:10352000000000924FEA0001FFF7ECBE4FF00041AF
:103530004FF00000A1F50021704700004FF47F0C10
:103540001CEAD0121EBF1CEAD11392EA0C0F93EAB8
:103550000C0F00F0478090EA010F48BF42F48072E0
:103560004FF0004C4CEA00204CEA012102EB030230
:10357000A0FB0113A2F50002002918BF43F00103CC
:103580005B0028BF4FEA330342EB22425FEA132C71
:103590004CEBC2502EBFBCEB436FB2F57C0F7047B3
:1035A0004FEA036CBCF1004F08BF20F00100B2F5F8
:1035B0007C0F38BF70470BD582F0FF0212F5803FB9
:1035C000C8BF704700F1C040D8BF00F0004070474E
:1035D00000F5000C5FEA4C0C48BF7047B0F1C040EA
:1035E00000F073B890EA010F0CEAD11348BF42F41F
:1035F0008072624538BF634504D280EA010000F062
:103600000040704710B500F01AF800BF8900013E75
:1036100000F007B800F009B85FEA410C5FEA1C6CE3
:1036200008D080EA010000F050B85FEA400C5FEA81
:103630001C6CF6D14FF00040A0F5800070470EF1F1
:10364000020E2EF0030E5EF8044B244204D44FEA1F
:103650004102B2F17F4F11D84FEA4003B3F17F4FDF
:103660000CD80ED14FEAD07CB2F17F4F0CEB4C0C52
:103670000CF1020C08BF4CEBD17C04E04FF0080CBD
:1036800001E04FEAD17C0CEB4C0324FA03F404F084
:103690000704B4F1040C06D20EEB840CBDE8104014
:1036A0004CF0010C6047DFE80CF0070802024FF015
:1036B0000040A0F5800010BD0846420018BFD2F1BE
:1036C000807288BF00F0004010BDFF2141EAD05059
:1036D000C005704700C1814001C0804101C08041E8
:1036E00000C1814001C0804100C1814000C18140D2
:1036F00001C0804101C0804100C1814000C18140C2
:1037000001C0804100C1814001C0804101C08041B1
:1037100000C1814001C0804100C1814000C18140A1
:1037200001C0804100C1814001C0804101C0804191
:1037300000C1814000C1814001C0804101C0804181
:1037400000C1814001C0804100C1814000C1814071
:1037500001C0804101C0804100C1814000C1814061
:1037600001C0804100C1814001C0804101C0804151
:1037700000C1814000C1814001C0804101C0804141
:1037800000C1814001C0804100C1814000C1814031
:1037900001C0804100C1814001C0804101C0804121
:1037A00000C1814001C0804100C1814000C1814011
:1037B00001C0804101C0804100C1814000C1814001
:1037C00001C0804100C1814001C0804101C08041F1
:1037D00000C1814000C0C101C30302C2C60607C7C1
:1037E00005C5C404CC0C0DCD0FCFCE0E0ACACB0B31
:1037F000C90908C8D81819D91BDBDA1A1EDEDF1F61
:10380000DD1D1CDC14D4D515D71716D6D21213D350
:1038100011D1D010F03031F133F3F23236F6F73700
:10382000F53534F43CFCFD3DFF3F3EFEFA3A3BFBF0
:1038300039F9F83828E8E929EB2B2AEAEE2E2FEFA0
:103840002DEDEC2CE42425E527E7E62622E2E32310
:10385000E12120E0A06061A163A3A26266A6A76740
:10386000A56564A46CACAD6DAF6F6EAEAA6A6BABB0
:1038700069A9A86878B8B979BB7B7ABABE7E7FBFE0
:103880007DBDBC7CB47475B577B7B67672B2B373D0
:10389000B17170B050909151935352929656579780
:1038A000559594549C5C5D9D5F9F9E5E5A9A9B5B70
:1038B00099595898884849894B8B8A4A4E8E8F4F20
:1038C0008D4D4C8C44848545874746868242438390
:1038D000418180400000000000000000010203045C
:1038E0000607080900000000010203040C39000863
:1038F0000000002090000000280100089C3900080A
:103900009000002070070000440100080000000043
:1039100000000000000000000000000000000000A7
:103920000000000000000000000000000000000097
:103930000000000000000000000000000000000087
:103940000000000000000000000000000000000077
:103950000000000000000000000000000000000067
:103960000000000000000000000000000000000057
:103970000000000000000000000000000000000047
:103980000000000000000000000000000100000036
:0C39900010000000000000000024F40003
:04000005080000ED02
:00000001FF
